:020000040000FA
:1000000088050010E5000000E9000000EB0000009A
:10001000ED000000EF000000F10000000000000013
:10002000000000000000000000000000F3000000DD
:10003000F500000000000000F70000005902000079
:10004000FB000000FB000000FB000000FB000000C4
:10005000FB000000FB000000FB000000FB000000B4
:10006000FB000000FB000000FB000000FB000000A4
:10007000FB000000FB000000FB000000FB00000094
:10008000FB000000FB000000FB000000FB00000084
:10009000FB000000FB000000FB000000FB00000074
:1000A000FB000000FB000000FB000000FB00000064
:1000B000FB000000FB000000FB000000FB00000054
:1000C000FB000000FB000000FB000000DFF80CD08C
:1000D00000F0DEF80048004701030000880500102A
:1000E00000BF704705480047FEE7FEE7FEE7FEE772
:1000F000FEE7FEE7FEE7FEE7FEE7FEE7CD000000D5
:1001000030B54D492020C1F8A001D1F8A00140062A
:10011000FBD501F180010325C1F884504FF00002A6
:10012000C1F82821C1F82C214FF00100C1F88C0042
:10013000424B4B6008604FF0AA03CB604FF0550470
:10014000CC60A1F18001D1F888004001FBD541F8D5
:10015000805FCB60CC60C1F8882039484864C1F822
:1001600048218868A1F180016FEA10608007354A54
:10017000D1F80C0100F0030007D0E8B3012845D006
:10018000022849D0032850D13AE028B1012813D0E1
:10019000022822D0032848D151F8880FC0F3074025
:1001A000CB6F401CDBB25B1C584351F88839264C9E
:1001B000C3F30E035B1C0EE051F8880FC0F3074039
:1001C000CB6F401CDBB25B1C584351F888391F4C85
:1001D000C3F30E035B1C634324E051F8880FC0F3A4
:1001E0000740CB6F401CDBB25B1C584351F8883989
:1001F000C3F30E035B1C00E002E04FF47A44EAE72D
:10020000D1F80401124BC0B2401C0BE0D1F804013C
:10021000104BC0B2401C05E0D1F804014FF4FA4382
:10022000C0B2401CB3FBF0F01060086820F47040CE
:1002300040F48040086030BD00C00F4063000500FE
:10024000DE8728040000001000127A0000366E01DC
:1002500000093D00001BB7000C4901224868401C02
:1002600048600A280ED006DC03280DD0052809D0E6
:10027000082808D108E00D2806D00F2803D1002057
:1002800048608A700A7070474A7070470400001016
:10029000064C074D06E0E06840F0010394E80700D3
:1002A00098471034AC42F6D3FFF714FF702A0300CE
:1002B000902A030002E008C8121F08C1002AFAD1E0
:1002C00070477047002001E001C1121F002AFBD1D6
:1002D0007047000001000000020000000400000060
:1002E0000800000010000000200000004000000096
:1002F000800000000000000000000000FFFFFFFF82
:1003000008B54FF0FF3A5446012700253F4EFFF74E
:10031000F7FE3F4864214FF000080068B0FBF1F0A1
:10032000B0F1807F0DD220F07F414FF0E020491ED8
:100330004161384AF8211170C0F818804FF0070168
:10034000016100F090F84FF6FF7000F0D7FC324BDF
:1003500000934FF4A079002145234A46084600F057
:100360008CFE2E4B0093662304224521002000F0D2
:1003700084FE2B4B00936623042245214FF49E708C
:1003800000F07BFE274B009345234A46AB2100201B
:1003900000F073FEDFF890B0DFF890909BF800104B
:1003A00099B128466D1C8BF80080082800DD0025D7
:1003B00040F2A3201E49684301EB00130093632120
:1003C0002D237822084600F058FE1A48017869B1BA
:1003D0003C4480F80080082C14D0002C01DA01275E
:1003E0000024706959F8241008437061124801789C
:1003F0000029D3D080F80080706959F82410884310
:100400007061CBE757460724EBE7000040C00920A6
:100410000000001023ED00E0D2270000580000107B
:1004200098D400000ED8000006000010D40200008E
:100430008E8401000400001005000010401EFDD253
:100440007047FF490A6C42F0FF020A644FF4001241
:100450008A619210CA61486552008A61CA61000AC5
:100460004865012070472DE9F05FF548016841F0CB
:100470007E7101604FF07E718161052000F06EFE9B
:10048000002000F0A7FEEF4CA0F58A414FF48075E4
:10049000A08041F2300940F2022A4FF4837B40F2FF
:1004A0003F1640F2023731397DD10121002000F0A2
:1004B00084FE4FF4C561102000F07FFE062112205B
:1004C00000F07BFE40F63221132000F076FE402142
:1004D000112000F072FE5021152000F06EFE162152
:1004E000122000F06AFE0F2000F038FE45F2606135
:1004F000102000F062FE0F2000F030FE42F64E2188
:10050000132000F05AFE2946012000F056FEB91EC5
:10051000022000F052FE4946032000F04EFE5146F4
:10052000082000F04AFE00210A2000F046FE0021CB
:10053000302000F042FE40F20241312000F03DFE4A
:100540005946322000F039FE4FF4E061332000F0CC
:1005500034FE291D342000F030FE791E352000F0D5
:100560002CFE40F20771362000F027FEF91C3720E0
:1005700000F023FE4FF40271382000F01EFE40F61A
:100580000B71392000F019FE0F2000F0E7FD022169
:10059000412000F012FE4FF41C51602000F00DFECF
:1005A0000121612000E01EE000F007FE40F2191179
:1005B000902000F002FE4FF48571922000F0FDFDC6
:1005C0000421932000F0F9FD2946A02000F0F5FD5C
:1005D0000F2000F0C3FD0021A02000F0EEFD14204C
:1005E00000F0BCFDF7E1A0F513414FF48878253900
:1005F0007ED11021E72000F0E0FD0121002000F075
:10060000DCFD2946012000F0D8FD4FF4E061022016
:1006100000F0D3FD4946032000F0CFFD0021042067
:1006200000F0CBFD40F20721082000F0C6FD0021BC
:10063000092000F0C2FD00210A2000F0BEFD0121CA
:100640000C2000F0BAFD00210D2000F0B6FD0021C5
:100650000F2000F0B2FD0021102000F0AEFD0721B8
:10066000112000F0AAFD0021122000F0A6FD0021BB
:10067000132000F0A2FD0F2000F070FD41F2905118
:10068000102000F09AFD40F22721112000F095FD86
:100690000F2000F063FD9C21122000F08EFD0F2042
:1006A00000F05CFD4FF4C851132000F086FD2321BB
:1006B000292000F082FD0E212B2000F07EFD0F206E
:1006C00000F04CFD0021202000F077FD00212120CA
:1006D00000F073FD0F2000F041FD0721302000F0F5
:1006E0006CFD40F20771312000F067FD062100E04B
:1006F0007EE0322000F061FD40F20471352000F010
:100700005CFD41F60471362000F057FD04213720CE
:1007100000F053FD0021382000F04FFD40F206713B
:10072000392000F04AFD40F201713C2000F045FD07
:100730000F213D2000F041FD0F2000F00FFD0021B2
:10074000502000F03AFDEF21512000F036FD00214D
:10075000522000F032FD3146532000F02EFD4FF4C0
:100760002741602000F029FD0121612000F025FDD6
:1007700000216A2000F021FD0021802000F01DFDF5
:100780000021812000F019FD0021822000F015FDDC
:100790000021832000F011FD0021842000F00DFDD8
:1007A0000021852000F009FD1021902000F005FDBA
:1007B0000021922000F001FD0321932000F0FDFCB8
:1007C0004146952000F0F9FC0021972000F0F5FC4F
:1007D0000021982000F0F1FC40F23311072000F0D6
:1007E000ECFC0021202000F0E8FC00212120F0E0BA
:1007F000A0F5134120397ED14FF40041E52000F0EF
:10080000DCFC0121002000F0D8FC2946012000F08A
:10081000D4FC4FF4E061022000F0CFFC49460320F5
:1008200000F0CBFC0021042000F0C7FC514608205A
:1008300000F0C3FC0021092000F0BFFC002103E010
:1008400000C009200C0000100A2000F0B6FC0021B6
:100850000C2000F0B2FC00210D2000F0AEFC0021C5
:100860000F2000F0AAFC0021102000F0A6FC0021BF
:10087000112000F0A2FC0021122000F09EFC0021BB
:10088000132000F09AFC142000F068FC41F2B071D3
:10089000102000F092FC40F23711112000F08DFC86
:1008A000052000F05BFC40F23911122000F085FCBD
:1008B000052000F053FC4FF4E851132000F07DFCBC
:1008C0001321292000F079FC052000F047FC0021CD
:1008D000202000F072FC0021212000F06EFC062197
:1008E000302000F06AFC40F20111312000F065FC7C
:1008F0000321322000E06EE000F05FFC5946352015
:1009000000F05BFC40F60231362000F056FC394620
:10091000372000F052FC40F20771382000F04DFC07
:100920000721392000F049FC4FF4C0613C2000F061
:1009300044FC40F20B213D2000F03FFC0021502000
:1009400000F03BFCEF21512000F037FC0021522049
:1009500000F033FC3146532000F02FFC4FF41C51C3
:10096000602000F02AFC0121612000F026FC00211B
:100970006A2000F022FC0021802000F01EFC0021F3
:10098000812000F01AFC0021822000F016FC0021DA
:10099000832000F012FC0021842000F00EFC0021D6
:1009A000852000F00AFC1021902000F006FC0021B8
:1009B000922000F002FC0321932000F0FEFB414650
:1009C000952000F0FAFB0021972000F0F6FB0021B3
:1009D000982000F0F2FB41F23801032000F0EDFB1B
:1009E00040F27311072000F0E8FBA088A0F5094150
:1009F00089397DD10121002000F0DFFB052000F0C6
:100A0000ADFB4AF6A401032000F0D7FB052000F05F
:100A1000A5FB00210C2000F0D0FB052000F09EFB80
:100A200040F60C010D2000F0C8FB052000F096FBFD
:100A30004FF42C510E2000F0C0FB052000F08EFB7F
:100A4000B0211E2000F0B9FB052000F087FB42F624
:100A50003F31012000F0B1FB052000F07FFB4FF497
:100A6000C061022000F0A9FB052000F077FB002107
:100A7000102000F0A2FB052000F070FB46F2780188
:100A8000112000F09AFB052000F068FB00210520F2
:100A900000F093FB052000F061FB0021062000F030
:100AA0008CFB052000F05AFB4EF61C71162000F05E
:100AB00084FB052000F052FB0321172000F07DFB92
:100AC000052000F04BFB40F23321072000F075FBBE
:100AD000052000F043FB00210B2000F06EFB0520F9
:100AE00000F03CFB00210F2000F067FB052000E038
:100AF000ACE000F033FB0021412000F05EFB05205C
:100B000000F02CFB0021422000F057FB052000F0F4
:100B100025FB0021482000F050FB052000F01EFBC3
:100B20003146492000F049FB052000F017FB002169
:100B30004A2000F042FB052000F010FB00214B2072
:100B400000F03BFB052000F009FB4FF46F4144200F
:100B500000F033FB052000F001FB0021452000F0F0
:100B60002CFB052000F0FAFA3146462000F025FB68
:100B7000052000F0F3FA40F20771302000F01DFB71
:100B8000052000F0EBFA4FF401742146312000F00B
:100B900014FB052000F0E2FA2146322000F00DFBA4
:100BA000052000F0DBFA40F202552946332000F020
:100BB00004FB052000F0D2FA691D342000F0FDFA94
:100BC000052000F0CBFA2146352000F0F6FA05208A
:100BD00000F0C4FA2146362000F0EFFA052000F0BC
:100BE000BDFA2946372000F0E8FA052000F0B6FAF1
:100BF00039463A2000F0E1FA052000F0AFFA394614
:100C00003B2000F0DAFA052000F0A8FA00212320AA
:100C100000F0D3FA052000F0A1FA0021242000F012
:100C2000CCFA052000F09AFA4FF40041252000F09C
:100C3000C4FA052000F092FA00214F2000F0BDFA1E
:100C4000BDE8F05F00214E2000F0B7BABDE8F09F8C
:100C5000F84810B5808840F23F14A0F50942893A5F
:100C60004FF000010ED1442000F0A7FA4FF46F417D
:100C7000442000F0A2FA0021452000F09EFA21460F
:100C800046200CE0502000F098FAEF21512000F0AF
:100C900094FA0021522000F090FA21465320BDE83A
:100CA000104000F08ABA70B5E24DA0F23F10404209
:100CB000AA8889B2A2F5094384B2893B05D14E20A6
:100CC00000F07BFA21464F2004E0202000F075FA66
:100CD0002146212000F071FAD74C4FF48006E661DE
:100CE000222000F03FFA288800F04CFAA66170BD7F
:100CF000D04908807047CF49488070472DE9F041BE
:100D00008046FFF7A5FFCB488088A0F509418939C7
:100D10004FF0000105D14E2000F04FFA00214F2086
:100D200004E0202000F049FA0021212000F045FADB
:100D3000C14D4FF48006EE61222000F013FA7000DE
:100D4000A86100244FF49637404600F02BFA641C4B
:100D5000BC42F9D3AE61BDE8F0812DE9F05FDFF868
:100D6000D492C0F598740F46B9F80400BEB2A0F54D
:100D70000941893915464FF0000831461CD14420FD
:100D800000F01BFA4FF4B85000EB0720384381B253
:100D9000442000F012FAA1B20F46452000F00DFAEF
:100DA0000F34A1B2462000F008FA31464E2000F080
:100DB00004FA39464F2017E0502000F0FEF91737AB
:100DC000B9B2512000F0F9F9A1B20F46522000F05B
:100DD000F4F90F34A1B2532000F0EFF9314620208E
:100DE00000F0EBF93946212000F0E7F9DFF848A2DE
:100DF0004FF4800B5446CAF81CB0222000F0B2F920
:100E00004FF40000A06100264F460F244FF0010967
:100E100035F8181009FA04F001420BD0388800F0B8
:100E2000C1F9641EF4D5AD1C761C182EEDDBCAF892
:100E300018B00BE77888F2E70B46203AD1B27F4A28
:100E400001EB410102EB011200EB4000C10018016F
:100E500083E770B506460C461546FFF7F9FE05E038
:100E600021466D1C641C3046FFF7E6FF2A78002AF5
:100E7000F6D170BD10B50446FFF7EAFE2046BDE886
:100E800010406FA20021E4E72DE9F05FDFF8A4A194
:100E90000F46C0F5A070BAF80410851A48F6891BF1
:100EA000BCB2DDF82880594516469946214614D132
:100EB000442000F082F94FF4B85000EB072038438B
:100EC00081B2442000F079F9A9B2452000F075F90B
:100ED000A819401E81B246200FE0502000F06DF9A5
:100EE0001737B9B2512000F068F9A9B2522000F0CA
:100EF00064F9A819401E81B2532000F05EF9BAF8D7
:100F0000041008FB06F059454FEA90285746214641
:100F100005D14E2000F051F9A9B24F2004E0202065
:100F200000F04BF9A9B2212000F047F9DFF808A141
:100F30004FF4800B5446CAF81CB0222000F012F97E
:100F40004FF40000A06100250BE0741E08D4444556
:100F500001D3788800E0388800F024F9641EF6D5C3
:100F60006D1C4D45F1D3CAF818B06FE62DE9F04776
:100F7000C0F5A070871A2F48884616468188184603
:100F8000A1F509421FFA88F4089D9A4608EB00096A
:100F9000893A21461ED1442000F00FF96FF0FF017D
:100FA00001EB092040EA080081B2442000F005F975
:100FB000B9B28846452000F000F9B819401E81B248
:100FC000462000F0FAF821464E2000F0F6F841469F
:100FD0004F2019E0502000F0F0F8A9F1010081B293
:100FE000512000F0EAF8B9B28846522000F0E5F846
:100FF000B819401E81B2532000F0DFF821462020AE
:1010000000F0DBF84146212000F0D7F8DFF8288017
:101010004FF480094446C8F81C90222000F0A2F842
:101020004FF40000A061002721E005EB4604A41E58
:10103000002516E00C00001000C009208C120000F2
:1010400020202020202020202020202020202020A0
:10105000202020200000000034F8020900F0A2F84F
:101060006D1CB542F8D304EB4605AD1C7F1C5745FB
:10107000DBD3C8F81890BDE8F0872DE9F05FC0F524
:10108000A070851A67480F4616468188BCB2A1F544
:101090000942DDF828A0984607EB0309893A214662
:1010A0001DD1442000F089F86FF0FF0101EB092009
:1010B000384381B2442000F080F8A9B20F464520A1
:1010C00000F07BF8A819401E81B2462000F075F8A8
:1010D00021464E2000F071F839464F2019E050208B
:1010E00000F06BF8A9F1010081B2512000F065F821
:1010F000A9B20F46522000F060F8A819401E81B234
:10110000532000F05AF82146202000F056F83946C6
:10111000212000F052F8DFF810914FF4800B4C467C
:10112000C9F81CB0222000F01DF84FF40000A061A7
:1011300008FB06F10AEB4105AD1E002709E000247B
:1011400004E035F8020900F02DF8641CB442F8D32D
:101150007F1C4745F3D3C9F818B077E58004401EDB
:10116000FDD2704770B5304C4FF40001E161890049
:10117000A161FFF766F94FF08075E561FEF7B0FFFA
:10118000A56170BD70B5284C4FF40001A1618900C4
:10119000A161FFF756F94FF08075E561FEF7A0FFFA
:1011A000A56170BD70B5FFF74CF91F4C4FF080750D
:1011B000E561FEF795FFA56170BD70B51A4C4FF45F
:1011C00080050E46E561FFF7CDFF3046FFF7DAFFF9
:1011D000A56170BD70B5144C4FF48005E561C0B2D7
:1011E000FFF7C0FF6800A0614000A0614100E1611D
:1011F000206C20F0FF0020640A11E2618B11E36192
:101200005020401EFDD2606DA361C6B25020401E2A
:10121000FDD2606DA26166F31F2080B2A161A5615D
:1012200070BD00000C00001000C0092070B58C18C3
:1012300010F8015B15F0030201D110F8012B2B11FE
:1012400006D110F8013B03E010F8016B01F8016BC7
:10125000521EF9D1B3B110F8012B05F00C058A1A12
:101260000C2D04D0A2EB851203F1020308E010F864
:10127000015BA2EB0522F7E712F8015B01F8015BC5
:101280005B1EF9D5A142D3D3002070BD0000000041
:10129000000000000000000000000000000000004E
:1012A000000000000000000000000000000000003E
:1012B00000000000000000000000000000008001AD
:1012C0008001800180018001800180018001800116
:1012D0008001800180018001000000008001800108
:1012E00000000000000000000000000000000000FE
:1012F000CC00CC00CC00CC00CC00CC000000000026
:1013000000000000000000000000000000000000DD
:1013100000000000000000000000000000000000CD
:101320000000000000000000600C600C600C300643
:101330003006FE1FFE1F300638071803FE1FFE1F73
:10134000180318038C018C018C0100000000800040
:10135000E003F80F9C0E8C1C8C188C009800F80190
:10136000E007800E801C8C188C189C18B80CF00FAD
:10137000E00380008000000000000000000000008A
:1013800000000E181B0C110C11061106110311039D
:101390009B018E01C038C06C6044604430443044CE
:1013A0001844186C0C380000000000000000E00138
:1013B000F0033807180618063003F001F000F800B3
:1013C0009C310E33061E061C061C063FFC73F021E2
:1013D000000000000000000000000000000000000D
:1013E0000C000C000C000C000C000C0000000000B5
:1013F00000000000000000000000000000000000ED
:1014000000000000000000000000000000000002DA
:1014100000038001C000C0006000600030003000A8
:1014200030003000300030003000300060006000DC
:10143000C000C00080010003000200000000200086
:101440006000C00080018001000300030006000668
:101450000006000600060006000600060003000362
:1014600080018001C000600020000000000000003A
:101470000000000000000000C000C000D806F8070F
:10148000E001300338070000000000000000000009
:10149000000000000000000000000000000000004C
:1014A0000000000000000000800180018001800138
:1014B0008001FC3FFC3F80018001800180018001B0
:1014C000000000000000000000000000000000001C
:1014D000000000000000000000000000000000000C
:1014E000000000000000000000000000000080017B
:1014F00080010001000180000000000000000000E9
:1015000000000000000000000000000000000000DB
:1015100000000000E007E0070000000000000000FD
:1015200000000000000000000000000000000000BB
:1015300000000000000000000000000000000000AB
:101540000000000000000000000000000000C000DB
:10155000C000000000000000000000000000000CBF
:10156000000C0006000600060003000300038003D1
:10157000800180018001C000C000C00060006000E8
:101580000000000000000000000000000000E00378
:10159000F007380E180C0C180C180C180C180C1836
:1015A0000C180C180C180C18180C380EF007E00367
:1015B000000000000000000000000000000000012A
:1015C0008001C001F0019801880180018001800143
:1015D0008001800180018001800180018001800103
:1015E0000000000000000000000000000000E00318
:1015F000F80F180C0C180C1800180018000C000636
:1016000000038001C000600030001800FC1FFC1FB8
:101610000000000000000000000000000000E001E9
:10162000F807180E0C0C0C0C000C0006C003C007C9
:10163000000C001800180C180C18180CF807E00320
:101640000000000000000000000000000000000C8E
:10165000000E000F000F800DC00C600C600C300CF1
:10166000180C0C0CFC3FFC3F000C000C000C000C98
:101670000000000000000000000000000000F80F63
:10168000F80F180018000C00EC03FC071C0E001CDF
:101690000018001800180C181C0C180EF807E003AE
:1016A0000000000000000000000000000000C00773
:1016B000F00F381C181818000C00CC03EC0F3C0E6F
:1016C0001C1C0C180C180C18181C380EF007E00322
:1016D0000000000000000000000000000000FC1FEF
:1016E000FC1F000C00060006000380038001C001FF
:1016F000C000E0006000600070003000300030008A
:101700000000000000000000000000000000E003F6
:10171000F007380E180C180C180C3806F007F007F4
:10172000180C0C180C180C180C18380CF80FE003D7
:101730000000000000000000000000000000E003C6
:10174000F007380E1C0C0C180C180C181C1C381E3A
:10175000F81BE0190018000C000C1C0EF807F00133
:101760000000000000000000000000000000000079
:101770000000000000000000800180010000000067
:101780000000000000000000000000008001800157
:101790000000000000000000000000000000000049
:1017A0000000000000000000800180010000000037
:1017B0000000000000000000000000008001800127
:1017C0000001000180000000000000000000000097
:1017D0000000000000000000000000000010001CDD
:1017E000800FE003F8001800F800E003800F001CF1
:1017F00000100000000000000000000000000000D9
:10180000000000000000000000000000F81F0000C1
:1018100000000000F81F00000000000000000000B1
:1018200000000000000000000000000000000000B8
:101830000000000000000000000000000800380068
:10184000F001C007001F0018001FC007F00138009A
:101850000800000000000000000000000000E0039D
:10186000F80F180C0C180C180018000C00060003D8
:101870008001C000C000C00000000000C000C00027
:101880000000000000000000000000000000000058
:10189000E00718180420C229224A114409440944C7
:1018A000094409221113E20C024004201818E00731
:1018B00000000000000000000000000000008003A5
:1018C0008003C006C006C006600C600C30183018DB
:1018D0003018F83FF83F1C700C600C6006C006C062
:1018E0000000000000000000000000000000FC03F9
:1018F000FC0F0C0C0C180C180C180C0CFC07FC0F33
:101900000C180C300C300C300C300C18FC1FFC0781
:101910000000000000000000000000000000C00700
:10192000F01F38381C300C700660060006000600F8
:1019300006000600060006600C701C30F01FE00771
:101940000000000000000000000000000000FE0396
:10195000FE0F060E06180618063006300630063052
:1019600006300630063006180618060EFE0FFE0377
:101970000000000000000000000000000000FC3F2C
:10198000FC3F0C000C000C000C000C00FC1FFC1FAA
:101990000C000C000C000C000C000C00FC3FFC3F89
:1019A0000000000000000000000000000000F83F00
:1019B000F83F18001800180018001800F81FF81F4A
:1019C0001800180018001800180018001800180057
:1019D0000000000000000000000000000000E00F18
:1019E000F83F3C780E6006E007C00300030003FEEA
:1019F00003FE03C007C006C00EC03CF0F83FE00F76
:101A000000000000000000000000000000000C309A
:101A10000C300C300C300C300C300C30FC3FFC3FE8
:101A20000C300C300C300C300C300C300C300C30D6
:101A30000000000000000000000000000000800125
:101A4000800180018001800180018001800180018E
:101A5000800180018001800180018001800180017E
:101A60000000000000000000000000000000000670
:101A70000006000600060006000600060006000636
:101A8000000600060006180618063807F003E001F5
:101A90000000000000000000000000000000063010
:101AA0000618060C060606038601C60066007600C8
:101AB000DE008E0106030606060C061806300660D8
:101AC00000000000000000000000000000001800FE
:101AD0001800180018001800180018001800180046
:101AE000180018001800180018001800F81FF81F38
:101AF00000000000000000000000000000000EE0F8
:101B00001EF01EF01EF036D836D836D836D866CC41
:101B100066CC66CCC6C6C6C6C6C6C6C686C386C39F
:101B200000000000000000000000000000000C3079
:101B30001C303C303C306C306C30CC30CC308C3194
:101B40000C330C330C360C360C3C0C3C0C380C3083
:101B50000000000000000000000000000000E0079E
:101B6000F81F1C380E70066003C003C003C003C01A
:101B700003C003C003C006600E701C38F81FE007E6
:101B80000000000000000000000000000000FC0F4A
:101B9000FC1F0C380C300C300C300C300C18FC1FB7
:101BA000FC070C000C000C000C000C000C000C00DE
:101BB0000000000000000000000000000000E0073E
:101BC000F81F1C380E70066003E003C003C003C09A
:101BD00003C003C007E006630E3F1C3CF83FE0F77C
:101BE00000C0000000000000000000000000FE0F28
:101BF000FE1F06380630063006300638FE1FFE0788
:101C000006030606060C061806180630063006609F
:101C10000000000000000000000000000000E003E1
:101C2000F80F1C0C0C180C180C001C00F803E00F2B
:101C3000001E0038063006300E301C1CF80FE0077E
:101C40000000000000000000000000000000FE7F17
:101C5000FE7F800180018001800180018001800180
:101C6000800180018001800180018001800180016C
:101C700000000000000000000000000000000C3028
:101C80000C300C300C300C300C300C300C300C3074
:101C90000C300C300C300C300C301818F81FE007EA
:101CA00000000000000000000000000000000360D1
:101CB0000630063006300C180C180C18180C180CCE
:101CC000380E30063006700760036003C001C001A3
:101CD00000000000000000000000000000000360A1
:101CE000C361C361C361663366336633663366338B
:101CF00066336C1B6C1B6C1B2C1A3C1E380E380E8A
:101D000000000000000000000000000000000FE0E4
:101D10000C7018303018700C600EC0078003800300
:101D2000C003E006700C301C18180C300E6007E081
:101D3000000000000000000000000000000003C0E0
:101D400006600C301C383818300C6006E007C00301
:101D5000800180018001800180018001800180017B
:101D60000000000000000000000000000000FC7FF8
:101D7000FC7F006000300018000C000600038001AA
:101D8000C0006000300018000C000600FE7FFE7FDF
:101D90000000000000000000000000000000E00360
:101DA000E0036000600060006000600060006000B0
:101DB0006000600060006000600060006000600023
:101DC000600060006000E003E003000000003000FD
:101DD0003000600060006000C000C000C000C001B2
:101DE000800180018001000300030003000600065B
:101DF0000000000000000000000000000000E00300
:101E0000E0030003000300030003000300030003DA
:101E100000030003000300030003000300030003AA
:101E2000000300030003E003E003000000000000E3
:101E3000C001C00160036003600330063006180C67
:101E4000180C00000000000000000000000000006E
:101E50000000000000000000000000000000000082
:101E60000000000000000000000000000000000072
:101E70000000000000000000000000000000FFFF64
:101E8000FFFF0000000000000000000000000C0048
:101E90000C000C000C000C000C0000000000000006
:101EA0000000000000000000000000000000000032
:101EB0000000000000000000000000000000000022
:101EC0000000000000000000F003F8071C0C0C0CE0
:101ED000000FF00FF80C0C0C0C0C1C0FF80FF01886
:101EE00000000000000000000000000000001800DA
:101EF0001800180018001800D803F80F380C18182C
:101F000018181818181818181818380CF80FD803BB
:101F100000000000000000000000000000000000C1
:101F20000000000000000000C003F007300E180C95
:101F30001800180018001800180C300EF007C00325
:101F40000000000000000000000000000000001879
:101F50000018001800180018C01BF01F301C1818BB
:101F600018181818181818181818301CF01FC01B4B
:101F70000000000000000000000000000000000061
:101F80000000000000000000C003F00F300C181823
:101F9000F81FF81F180018003818301CF00FC00781
:101FA0000000000000000000000000000000800FA2
:101FB000C00FC000C000C000F007F007C000C000A4
:101FC000C000C000C000C000C000C000C000C00011
:101FD0000000000000000000000000000000000001
:101FE0000000000000000000E00DF80F180E0C0CBF
:101FF0000C0C0C0C0C0C0C0C0C0C180EF80FE00D4F
:10200000000C0C0C1C06F807F00100000000180082
:102010001800180018001800D807F80F381C1818F6
:102020001818181818181818181818181818181830
:102030000000000000000000000000000000C000E0
:10204000C000000000000000C000C000C000C000D0
:10205000C000C000C000C000C000C000C000C00080
:102060000000000000000000000000000000C000B0
:10207000C000000000000000C000C000C000C000A0
:10208000C000C000C000C000C000C000C000C00050
:10209000C000C000C000F8007800000000000C0084
:1020A0000C000C000C000C000C0C0C060C038C013A
:1020B000CC006C00FC009C018C030C030C060C0C87
:1020C0000000000000000000000000000000C00050
:1020D000C000C000C000C000C000C000C000C00000
:1020E000C000C000C000C000C000C000C000C000F0
:1020F00000000000000000000000000000000000E0
:1021000000000000000000007C3CFF7EC7E383C1AC
:1021100083C183C183C183C183C183C183C183C19F
:1021200000000000000000000000000000000000AF
:1021300000000000000000009807F80F381C181875
:10214000181818181818181818181818181818180F
:10215000000000000000000000000000000000007F
:102160000000000000000000C003F00F300C181841
:1021700018181818181818181818300CF00FC00371
:10218000000000000000000000000000000000004F
:102190000000000000000000D803F80F380C1818E9
:1021A00018181818181818181818380CF80FD80319
:1021B00018001800180018001800000000000000A7
:1021C0000000000000000000C01BF01F301C1818A9
:1021D00018181818181818181818301CF01FC01BD9
:1021E0000018001800180018001800000000000077
:1021F0000000000000000000B007F0037000300095
:10220000300030003000300030003000300030004E
:1022100000000000000000000000000000000000BE
:102220000000000000000000E003F003380E180C6E
:102230003800F003C007000C180C380EF007E0035C
:10224000000000000000000000000000000000008E
:102250008000C000C000C000F007F007C000C00050
:10226000C000C000C000C000C000C000C0078007A0
:10227000000000000000000000000000000000005E
:10228000000000000000000018181818181818188E
:1022900018181818181818181818381CF01FE019F2
:1022A000000000000000000000000000000000002E
:1022B00000000000000000000C18180C180C180C8E
:1022C000300630063006600360036003C001C001C1
:1022D00000000000000000000000000000000000FE
:1022E0000000000000000000C141C141C361636300
:1022F000636363633636363636361C1C1C1C1C1C66
:1023000000000000000000000000000000000000CD
:1023100000000000000000001C38381C300C600673
:10232000C003C003C003C0036006300C381C1C3857
:10233000000000000000000000000000000000009D
:10234000000000000000000018303018301870182D
:10235000600C600CE00CC006C006800380038003A4
:1023600080018001C001F00070000000000000004A
:102370000000000000000000FC1FFC1F000C000615
:1023800000038001C000600030001800FC1FFC1F2B
:10239000000000000000000000000000000000033A
:1023A0008001C000C000C000C000C000C0006000CC
:1023B0006000300060004000C000C000C000C000ED
:1023C000C000C00080010003000000000000800188
:1023D00080018001800180018001800180018001F5
:1023E00080018001800180018001800180018001E5
:1023F00080018001800180018001000000006000F8
:10240000C000C001800180018001800180010003C3
:1024100000030006000300018001800180018001AB
:1024200080018001C000600000000000000000008A
:10243000000000000000000000000000F010F81F85
:10244000080F000000000000000000000000000075
:10245000000000000000000000000000000000007C
:10246000000000000000000000000000000000006C
:10247000000000000000000000000000000000005C
:10248000000000000000000000000000000000004C
:10249000000000000000C003300C081004200420DD
:1024A0000240024002400240024004200420081082
:1024B000300CC0030000000000000000000000001D
:1024C000000000000000C003F00FF81FFC3FFC3FBD
:1024D000FE7FFE7FFE7FFE7FFE7FFC3FFC3FF81FFE
:1024E000F00FC0030000000000000000000000002A
:1024F00000000000000000000000E007F00F1818C6
:1025000018181818181818181818F00FE0070000F5
:1025100000000000000000000000000000000000BB
:1025200000000000000000000000E007F00FF81FAE
:10253000F81FF81FF81FF81FF81FF00FE007000042
:10254000000000000000000000000000000000008B
:10255000000000000000000000000000000000007B
:10256000000000008001C0036006300C1818181825
:10257000F81FF81F0000000000000000000000002D
:10258000000000000000000000000000000000004B
:10259000000000008001C003E007F00FF81FF81FE3
:1025A000F81FF81F000000000000000000000000FD
:1025B00000000000F81FF81F18181818300C6006EB
:1025C000C0038001000000000000000000000000C7
:1025D00000000000000000000000000000000000FB
:1025E00000000000F81FF81FF81FF81FF00FE007A9
:1025F000C003800100000000000000000000000097
:1026000000000000000000000000000000000000CA
:1026100000000000000000000000E001F00198014F
:102620008C01860186018C019801F001E001000017
:10263000000000000000000000000000000000009A
:1026400000000000000000000000E001F001F801BF
:10265000FC01FE01FE01FC01F801F001E0010000B7
:10266000000000000000000000000000000000006A
:10267000000000000000000000008007800F8019AB
:1026800080318061806180318019800F8007000077
:10269000000000000000000000000000000000003A
:1026A000000000000000000000008007800F801F75
:1026B000803F807F807F803F801F800F80070000E9
:1026C0000000000000000000000000000000C00149
:1026D00020022002400130060808080808080808FF
:1026E0000808080808082002200220022002200210
:1026F0002002200220022002200200000000C0016F
:10270000E003E003C001F007D80DD80DD80DD80DB7
:10271000D80DD80DD80D600360036003600360031B
:102720006003600360036003600300000000C001F9
:10273000200220024001300608080808080804109A
:10274000022002204001200220021004080808088C
:102750000410041004200440000000000000C00128
:10276000E003E003C001F007D80DD80DD80DCC1957
:10277000C631C261C001600360037006380C180CDA
:102780000C180C180C300C6000000000424DC6AC58
:10279000000000000000460000003800000040017A
:1027A000000045000000010010000300000080ACA4
:1027B0000000130B0000130B0000000000000000DD
:1027C000000000F80000E00700001F00000000000B
:1027D000000082108210821082108210A210A210BB
:1027E000A210A210A210A318A318A318A318C3180C
:1027F000C318C318C318C318C318C318C318C31801
:10280000C318E318E318E318E318E420E420E420F5
:10281000E420E420042104210421042104210421D2
:1028200004210421042124212421242124212421E0
:102830002421252945294529452945294529452971
:102840004529452965296529652965296529652958
:102850006531663166318631863186318631863121
:102860008631A631A631A631A631A631A631A739C7
:10287000A739C739C739C739C739C739C739C73978
:10288000E739E739E739E739E739E739E841084215
:1028900008420842084208420842084228422842A8
:1028A000284228422842284A294A494A494A494A4C
:1028B000494A494A494A494A494A694A694A694A20
:1028C000694A694A6A528A528A528A528A528A529A
:1028D0008A52AA52AA52AA52AA52AA52AA52AA5238
:1028E000AA52AB5ACB5ACB5ACB5ACB5ACB5ACB5A09
:1028F000EB5AEB5AEB5AEB5AEB62EC5AEC620C6374
:102900000C630C630C630C630C632C632C632C63EF
:102910002C632C6B2D6B2D6B4D6B4D6B4D6B4D6B81
:102920004D6B4D6B6D6B6D6B6D6B6D6B6D6B6D6B27
:102930008D738E738E738E738E738E738E73AE7370
:10294000AE73AE73AE73AE73AF7BCF7BCF7BCF7BFB
:10295000CF7BCF7BCF7BCF7BEF7BEF7BEF7BEF7BA7
:10296000EF7BEF83108410841084108410843084F3
:10297000308430843084308430845184318C518C64
:10298000518C518C518C518C718C718C718C718CDF
:10299000718C718C728C9294929492949294929481
:1029A0009294B294B294B294B294B294B294B29417
:1029B000D39CD39CD39CD39CD39CF39CF39CF39C3F
:1029C000F39CF39CF39CF39CF39C14A5149D14A519
:1029D00014A514A514A534A534A534A534A534A58F
:1029E00034A554A555A555AD55AD55AD55AD55AD11
:1029F00055AD55AD75AD75AD75AD75AD75AD75AD07
:102A000076AD96B596B596B596B596B5B6B5B6B556
:102A1000B6B5B6B5B6B5B6B5B6B5B6B5D6B5D6BD16
:102A2000D7BDD7BDD7BDD7BDF7BDF7BDF7BDF7BD86
:102A3000F7BDF7BDF7BD17BE17BE17BE18C618C63F
:102A400018C618C618C638C638C638C638C638C6F6
:102A500038C6821082108210821082108210A2105A
:102A6000A210A210A210A310A318A318A318A318B1
:102A7000A318C318C318C318C318C318C318C3189E
:102A8000C318E318E318E318E318E418E420E4207B
:102A9000E4200421E4200421042104210421042150
:102AA000042104210421242124212421242124215E
:102AB00024212521452945294529452945294529F7
:102AC00045294529452965296529652965296529F6
:102AD00065296631663166318631863186318631C7
:102AE00086318631A631A631A631A631A631A7316D
:102AF000A639A739C739C739C739C739C739C73917
:102B0000C739E739E739E739E739E739E7390842BB
:102B10000842084208420842084208422842284225
:102B200028422842284228422942294A294A494A19
:102B3000494A494A494A494A494A694A694A694A9D
:102B4000694A694A694A69528A528A528A528A5241
:102B50008A52AA52AA52AA52AA52AA52AA52AA52B5
:102B6000AB5AAB5AAB5ACB5ACB5ACB5ACB5ACB5A9D
:102B7000CB5AEB5AEB5AEB5AEB5AEC5AEC62EC623A
:102B80000C630C630C630C630C630C632C632C638D
:102B90002C632C632D6B2D6B4D6B4D6B4D6B4D6B07
:102BA0004D6B4D6B4D6B6D6B6D6B6D6B6D6B6D6BC5
:102BB0006D738E738E738E738E738E738E73AE730E
:102BC000AE73AE73AE73AE73AE73AF73CF7BCF7BAA
:102BD000CF7BCF7BCF7BCF7BCF7BEF7BEF7BEF7B45
:102BE000EF7BEF7B10841084108410841084108499
:102BF0003084308430843084308430843084518C0C
:102C0000518C518C518C518C518C718C718C718C7C
:102C1000718C718C718C9194929492949294929400
:102C200092949294B294B294B294B294B294B294B4
:102C3000D294D294D39CD39CD39CD39CD39CF39C0E
:102C4000F39CF39CF39CF39CF39C139D139D14A5A0
:102C500014A514A514A514A534A534A534A534A52C
:102C600034A534A534A555AD55AD55AD55AD55ADCF
:102C700055AD55AD55AD75AD75AD75AD75AD75ADA4
:102C800075AD96B596B596B596B596B596B596B515
:102C9000B6B5B6B5B6B5B6B5B6B5B6B5D6B5D6B59C
:102CA000D7BDD7BDD7BDD7BDD7BDF7BDF7BDF7BD24
:102CB000F7BDF7BDF7BDF7BD17BE17BE17BE18C6E7
:102CC00018C618C618C618C638C638C638C638C694
:102CD00038C68210821082108210821082108210F8
:102CE000A210A210A210A210A310A318A318A31838
:102CF000A318C318C318C318C318C318C318C3181C
:102D0000C318C318C318E318E318E318E420E3203A
:102D1000E420E420E420E42004210421042104210F
:102D200004210421042124212421242124212421DB
:102D30002421242124294529452945294529452996
:102D40004529452945294529652965296529652993
:102D50006529663166318631863186318631863124
:102D600086318631A631A631A631A631A631A631EB
:102D7000A631A739C739C739C739C739C739C7399C
:102D8000C739E739E739E739E739E739E739E8415A
:102D9000E841084208420842084208420842084204
:102DA00028422842284228422842294A294A494A98
:102DB000494A494A494A494A494A494A694A694A3B
:102DC000694A694A694A894A6A528A528A528A52C7
:102DD0008A528A528A52AA52AA52AA52AA52AA5273
:102DE000AA52AA52AB5ACB5ACB5ACB5ACB5ACB5A2D
:102DF000CB5ACB5AEB5AEB5AEB5AEB5AEB5AEC62E2
:102E00000C630C630C630C630C630C632C632C630A
:102E10002C632C632C632C6B2D6B4D6B4D6B4D6BAE
:102E20004D6B4D6B4D6B4D6B6D6B6D6B6D6B6D6B62
:102E30006D6B8E738E738E738E738E738E738E73B3
:102E40008E73AE73AE73AE73AE73AE73CF7BCF7B48
:102E5000CF7BCF7BCF7BCF7BCF7BEF7BEF7BEF7BC2
:102E6000EF7BEF7B0F7C108410841084108410841F
:102E70003084108430843084308430843084508CAA
:102E8000518C518C518C518C518C718C718C718CFA
:102E9000718C718C718C918C928C9294929492948E
:102EA00092949294B294B294B294B294B294B29432
:102EB000B294D294D394D39CD39CD39CD39CD39CD4
:102EC000F39CF39CF39CF39CF39CF39C139D149D47
:102ED00014A514A514A514A534A534A534A534A5AA
:102EE00034A534A534A554A555AD55AD55AD55AD56
:102EF00055AD55AD55AD75AD75AD75AD75AD75AD22
:102F000075AD95B596B596B596B596B596B596B593
:102F1000B6B5B6B5B6B5B6B5B6B5B6B5B6B5D6B539
:102F2000D6BDD7BDD7BDD7BDD7BDD7BDF7BDF7BDC2
:102F3000F7BDF7BDF7BDF7BD17BEF7BD18BE18C684
:102F400018C618C618C618C638C638C638C638C611
:102F500038C6821082108210821082108210821075
:102F60008210A210A210A210A310A310A318A318DD
:102F7000A318A318C318C318C318C318C318C318B9
:102F8000C318C318C318E318E318E318E318E318C9
:102F9000E418E420E420E420E420042104210421B6
:102FA00004210421042104210421042124212421B9
:102FB00024212421242124212521252925294529AD
:102FC0004529452945294529452945294529652971
:102FD0006529652965296529652966316631863146
:102FE000863186318631863186318631A631A631E9
:102FF000A631A631A631A739C739C739C739C7396C
:10300000C739C739C739E739E739E739E739E73920
:10301000E841084208420842084208420842084281
:103020002842284228422842284228422842294A47
:10303000294A494A494A494A494A494A494A694AF8
:10304000694A694A694A694A694A694A694A8A52BF
:103050008A528A528A528A528A528A52AA52AA5250
:10306000AA52AA52AA52AA52AA5AAB5ACB5ACB5A1D
:10307000CB5ACB5ACB5AEB5AEB5AEB5AEB5AEB5A88
:10308000EB62EC620C630C630C630C630C630C630B
:103090000C632C632C632C632C632C6B2D6B4D6B9E
:1030A0004D6B4D6B4D6B4D6B6D6B6D6B6D6B6D6BE0
:1030B0006D6B6D6B6E738E738E738E738E738E737A
:1030C0008E738E738E73AE73AE73AE73AE73AE7358
:1030D000AE7BCF7BCF7BCF7BCF7BEF7BEF7BEF7B61
:1030E000EF7BEF7BEF7BEF7BEF7B0F7C108410841B
:1030F0001084108430843084308430843084308470
:103100005184518C518C518C518C518C518C518CDF
:10311000718C718C718C718C718C718C7194929496
:10312000929492949294B294B294B294B294B294CF
:10313000B294B294B294B294D294D39CD39CD39CC4
:10314000D39CD39CF39CF39CF39CF39CF39CF39C47
:10315000F39C13A514A514A514A514A534A534A592
:1031600034A534A534A534A534A554A554AD55AD26
:1031700055AD55AD55AD55AD55AD75AD75AD75ADDF
:1031800075AD75AD75AD76AD96B596B596B596B58A
:10319000B6B596B5B6B5B6B5B6B5B6B5B6B5B6B5F7
:1031A000B6B5D7B5D7BDD7BDD7BDD7BDF7BDF7BD70
:1031B000F7BDF7BDF7BDF7BDF7BDF7BD17BE17BE2D
:1031C00018C618C618C618C618C638C638C638C6AF
:1031D00038C68210821082108210821082108210F3
:1031E000A210A210A210A210A210A210A210A31846
:1031F000A318A318A318C318C318C318C318C31857
:10320000C318C318C318C318E318E318E318E31866
:10321000E418E420E420E420E4200421E420042154
:103220000421042104210421042104210421042176
:10323000242124212421242124212429252925294C
:1032400045294529452945294529452945296529EE
:1032500065296529652965296529663166318631C3
:10326000863186318631863186318631A631A63166
:10327000A631A631A631A631A639A739C739C73933
:10328000C739C739E739C739E739E739E739E7399E
:10329000E739E739E841E841084208420842084274
:1032A000084208422842284228422842284228420E
:1032B000294A494A494A494A494A494A494A494A96
:1032C000694A694A694A694A694A694A694A69525E
:1032D0008A528A528A528A528A528A52AA52AA52CE
:1032E000AA52AA52AA52AA52AB5AAB5ACB5ACB5A9A
:1032F000CB5ACB5ACB5ACB5ACB5AEB5AEB5AEB5A46
:10330000EB5AEC5AEC620C630C630C630C630C63B9
:103310000C632C632C632C632C632C632D6B4D6B23
:103320004D6B4D6B4D6B4D6B4D6B4D6B4D6B6D6BBD
:103330006D6B6D6B6E738D738E738E738E738E73F8
:103340008E738E738E73AE73AE73AE73AE73AE73D5
:10335000AE73AF73CF7BCF7BCF7BCF7BCF7BCF7B6E
:10336000EF7BEF7BEF7BEF7BEF7B0F7C1084108498
:10337000108410841084308430843084308430840D
:103380003084518C518C518C518C518C518C518C7E
:10339000518C718C718C718C718C718C718C72945C
:1033A000929492949294929492949294B294B294AD
:1033B000B294B294B294B294D294D39CD39CD39C42
:1033C000D39CD39CF39CF39CF39CF39CF39CF39CC5
:1033D000139D139D13A514A514A514A514A514A538
:1033E00034A534A534A534A534A534A554A554ADCD
:1033F00055AD55AD55AD55AD55AD55AD75AD75AD7D
:1034000075AD75AD75AD75AD95AD96B596B596B511
:1034100096B596B596B5B6B5B6B5B6B5B6B5B6B5B4
:10342000D6B5D6B5D7B5D7BDD7BDD7BDD7BDD7BD16
:10343000F7BDF7BDF7BDF7BDF7BDF7BD17BE17BEAA
:1034400017C618C618C618C618C638C638C638C62D
:1034500038C6821082108210140BF40A140B140B5D
:10346000140B140B140B140B140B1413141314134C
:103470001413341334133413341334133413341334
:1034800034133413541B341B541B541B541B551B33
:10349000551B551B551B551B551B551B551B751B8C
:1034A000752375237523752375237523752375235C
:1034B00095239523952395239523952B952B952B34
:1034C000B52BB52BB52BB52BB52BB52BB52BB533F4
:1034D000D533D533D533D633D633D633D633D633A7
:1034E000F633F63BF63BF63BF63BF63BF63BF63B5C
:1034F000F63BF63B1644164416441644364436440E
:10350000364436443644364C364C364C574C574C81
:10351000574C574C574C574C574C774C7754775423
:103520007754775477549754975497549754975C9B
:10353000975C975C975CB75C975CB75CB75CB7646B
:10354000B764B864B864D864D864D864D864D864FC
:10355000D86CF86CF86CF86CF86CF86CF86CF86C6B
:10356000186D1875187518751875187538753975BA
:1035700039753975397D397D397D597D597D597D4B
:10358000597D597D597D59857985798579857985E3
:103590007985798579857985998D998D9A8D9A8D99
:1035A0009A8D9A8DBA8DBA8DBA95BA95BA95DA95E3
:1035B000DA95DA95DA95DA95DA9DDA9DDA9DFA9D53
:1035C000FA9DFA9DFA9DFA9DFA9D1A9E1BA61BA6CE
:1035D0001BA61BA61BA61BA61BA63BA63BA63BAE7B
:1035E0003BAE3BAE3BAE5BAE5BAE5BAE5BAE5BB6EB
:1035F0005BB67BB67BB67BB67BB67CB67CB67CB660
:103600009CB69CBE9CBE9CBE9CBE9CBE9CBE9CBEF2
:103610009CBEBCBEBCBEBCC6BCC6BCC6BCC6BCC6D2
:10362000DCC6DCC6DCC6DCC6DCC6DCCEDCCEDCCE72
:10363000DCCEFCCEFCCEFCCEFDCEFDCEFDCEFDD64E
:10364000FDD61DD71DD71DD71DD71DD71DD73DD7DB
:103650001DD73DD73DDF3DDF3DDF3DDF3DDF3DDFBA
:103660005DDF5DDF5DDF5DDF5DDF5DDF5DDF5DE772
:103670005DE75DE77EE77EE77EE77EE77EE77EE764
:103680007EE77EE77EE77EE77EE79EEF9EEF9EEF9A
:103690009EEF9EEF9EEF9EEF9EEFBEEFBEEFBEEF62
:1036A000BEF7BEF7BEF7BEF7BEF7DEF7BFF7DFF730
:1036B000DFF7DFF7DFF7DFF7DFF7DFF7DFF7DFFF52
:1036C000DFFFDFFFFFFFFFFFFFFF18C618C638C68A
:1036D00038C6821082108210F40AF40A140B140BFC
:1036E000140B140B140B140B140B140B14131413D2
:1036F00014131413341334133413341334133413D2
:10370000341334133413541B541B541B551B541BB8
:10371000551B541B541B541B541B551B551B741B0E
:1037200075237523752375237523752375237523D9
:103730007523752395239523952B952B952B952BE9
:10374000952B952B952BB52BB52BB52BB52BB52BD9
:10375000B533B533D533D533D533D533D533D53369
:10376000D633D63BD63BF63BF63BF63BF63BF63B39
:10377000F63B163C163C16441644164416441644B2
:103780001644364436443644364C364C364C364C69
:10379000574C564C574C574C574C574C57547754E2
:1037A0007754775477547754775477549754975C79
:1037B000975C975C975C975CB75CB75CB75CB75CF1
:1037C000B75CB764D764D764D764D764D764D86468
:1037D000D864D86CD86CF86CF86CF86CF86CF86C31
:1037E000F86CF86C187518751875187518753875A3
:1037F000387538753975397D397D597D597D597DD3
:10380000597D597D597D59855985598579857985A0
:103810007985798579859985998D998D998D998DF8
:103820009A8D9A8DBA8DBA8DBA8DBA95BA95BA9588
:10383000BA95DA95DA95DA95DA95DA9DDA9DDA9D18
:10384000FA9DFA9DFA9DFA9DFA9DFA9DFA9D1AA697
:103850001AA61AA61BA61BA61BA61BA61BA63BA642
:103860003BA63BAE3BAE3BAE3BAE3BAE5BAE5BAED8
:103870005BB65BB67BB67BB67BB67BB67BB67CB6FF
:103880009CB67CB69CBE9CBE9CBE9CBE9CBE9CBE98
:103890009CBE9CBEBCBEBCBEBCBEBCC6BCC6BCC680
:1038A000BCC6BCC6DCC6DCC6DCC6DCCEDCCEDCCE30
:1038B000FCCEDCCEDCCEFCCEFCCEFCCEFCCEFCCEF8
:1038C000FCCEFCCEFCD6FDD61DD71DD71DD71DD7EF
:1038D0001DD71DD71DD73DD73DDF3DDF3DDF3DDF88
:1038E0003DDF3DDF3DDF3DDF5DDF5DDF5DDF5DDF78
:1038F0005DDF5DE75DE75DE75EE77EE77EE77DE74D
:103900007EE77EE77EE77EE77EE77EEF9EEF9EEF37
:103910009EEF9EEF9EEF9EEFBEEFBEEFBEEFBEEFBF
:10392000BEF7BEF7BEF7BEF7BEF7BEF7DEF7DFF7AE
:10393000DFF7DFF7DFF7DFF7DFF7DFF7DFF7DFFFCF
:10394000DFFFDFFFDFFFDFFFFFFF18C618C618C667
:1039500038C6821082108210F40AF40AF40A140B9A
:10396000140B140B140B140B140B14131413141347
:10397000341334133413341334133413341334130F
:1039800034133413341B341B341B541B541B541B6F
:10399000541B541B541B541B541B541B541B541BAF
:1039A000541B542355235423542375237423752304
:1039B00074237423742374237523952B952B952BD3
:1039C000952B952B952B952BB52BB52BB52BB52B77
:1039D000B52BB533B533B533D533D533D533D5332F
:1039E000D533D533D533D53BD53BF63BF63BF63B0C
:1039F000F63BF63BF63B1644164416441644164472
:103A000016443644364436443644364C364C364CEE
:103A1000364C564C564C574C564C574C5754775482
:103A2000775477547754775477547754775497541E
:103A3000975C975C975C975C975C975C975CB75CCE
:103A4000B75CB764B764B764B764B764B764D76486
:103A5000D764D864D864D86CD86CF86CF86CF86CFF
:103A6000F86CF86CF86CF86C187518751875187592
:103A70001875187538753875387D387D387D397DFD
:103A8000397D397D397D597D597D597D59855985D6
:103A900059857985798579857985798D798D998D1E
:103AA000998D998D998D998DBA8DBA95BA95BA954A
:103AB000BA95DA95DA95DA95DA95DA95DA95DA9DA6
:103AC000DA9DDA9DDA9DFA9DFA9DFA9DFA9DFA9D9E
:103AD000FAA51AA61AA61AA61AA61AA61BA61BA605
:103AE0003BA63BAE3BAE3BAE3BAE3BAE3BAE3BAE96
:103AF0005BAE5BB65BB67BB67BB67BB67BB67BB6A6
:103B00007CB67CB69CB69CBE9CBE9BBE9BBE9BBE40
:103B10009BBE9BBE9BBE9BBE9BBE9BBE9CBEBCC6B3
:103B2000BCC6BCC6BCC6BCC6DCC6DCC6DCC6DCC605
:103B3000DCC6DCCEDCCEDCCEDCCEDCCEDCCEDCCE3D
:103B4000FCCEFCCEFCCEFCCEFCCEFCD6FCD6FCD60D
:103B50001CD71CD71DD71DD71DD71DD71DD71DD7C7
:103B60001DDF1DDF3DDF3DDF3DDF3DDF3DDF3DDFB5
:103B70003DDF3DDF5DDF5DDF5DDF5DDF5DE75DE795
:103B80005DE75DE75DE77DE77DE77DE77EE77EE773
:103B90009EEF9EEF9EEF9EEF9EEF9EEFBEEFBEEF7D
:103BA000BEEFBEF7BEF7BEF7BEF7BEF7BEF7DEF755
:103BB000DFF7DFF7DFF7DFF7DFF7DFF7DFF7DFF755
:103BC000DFF7DFFFDFFFFFFFFFFF18C618C638C6AD
:103BD00018C6821082108210F40AF40A140B140B17
:103BE000140B140B140B140B140B141314131413C5
:103BF00014133413341334133413341334133413AD
:103C0000341334133413341B341B541B341B541B14
:103C1000541B541B541B541B541B541B541B541B2C
:103C2000541B5423542354235423542374237423A4
:103C30007423742374237423742374237423742BC4
:103C4000942B942B952B952B952B952B952B952B76
:103C5000B52B9533B533B533B533B533B533B5334C
:103C6000D533D533D533D53BD53BD53BD53BF53BCC
:103C7000F63BF63BF63BF63BF64316441644164439
:103C8000164436443644364436443644364C364C74
:103C9000364C364C364C564C564C564C564C574C73
:103CA00057545654775477547754775477547754FD
:103CB0007754775C775C975C975C975C975C975CD4
:103CC000975C975CB75CB764B764B764B764B76474
:103CD000B764B764D764D764D76CD76CD76CD76C2C
:103CE000D76CF76CF76CF86CF86CF86CF8741875A6
:103CF00018751875187518753875387D387D387DC4
:103D0000387D387D387D387D587D587D597D598581
:103D1000598559857985798579857985798D798DE3
:103D2000798D998D998D998D998D998DB995B99533
:103D3000BA95BA95BA95BA95BA95BA95BA95DA95EB
:103D4000DA95DA9DDA9DDA9DDA9DDA9DDA9DFA9DA3
:103D5000FA9DFA9DFAA5FAA5FAA51AA61AA61AA618
:103D60001AA61AA61AA61AA61AAE3BAE3BAE3BAED0
:103D70003BAE3BAE5BAE5BB65BB67BB67BB67BB6B3
:103D80007BB67BB67BB67BB67BBE7BB67BBE7BBE93
:103D90007BBE7BBE7BBE9BBE9BBE9BBE9BBE9BBEBB
:103DA0009BBE9BC6BCC6BCC6BCC6BCC6BCC6BCC64D
:103DB000BCC6BCC6BCC6BCC6DCCEDCCEDCCEDCCE53
:103DC000DCCEDCCEDCCEDCCEDCCEDCCEFCCEFCCE63
:103DD000FCD6FCD6FCD6FCD6FCD6FCD61CD71CD711
:103DE0001CD71DD71DD71DDF1DDF1DDF3DDF3DDFCC
:103DF0003DDF3DDF3DDF3DDF3DDF3DDF3DDF5DDFC3
:103E00005DDF5DE75DE75DE75DE75DE77DE77DE75A
:103E10007DE77EEF7EEF9EEF9EEF9EEF9EEFBEEF83
:103E2000BEEFBEEFBEF7BEF7BFF7BEF7DEF7DFF7B8
:103E3000DFF7DFF7DFF7DFF7DFF7DFF7DFF7DFF7D2
:103E4000DFF7DFFFDFFFDFFFFFFF18C618C618C66A
:103E500018C6821062108210F40AF40A140BF40AD5
:103E6000140B140B140B140B140B140B141314134A
:103E7000141314133413341334133413341334134A
:103E80003413341334135413541B3413341B541B82
:103E9000541B541B541B541B541B541B541B541BAA
:103EA000541B541B541B5423542354235423542372
:103EB00054235423542374235423542374237423EA
:103EC000742B742B742B742B742B742B942B942BBA
:103ED000942B942B943394339533B433B533B53357
:103EE000B533B533B533B533B53BD53BD53BD53B12
:103EF000D53BF53BD53BF53BF63BF6431644164424
:103F000016441644364436441644364C364C364C29
:103F1000364C364C364C364C364C564C564C564C31
:103F2000564C565456545654565456545654765429
:103F300076547654765C775C765C765C775C765CFF
:103F4000965C965C975C975C975C976497649764C3
:103F50009764B764B764B764B764B764B76CD76C79
:103F6000D76CD76CD76CD76CD76CD76CF76CF76CF9
:103F7000F774F874F874187518751875187518753D
:103F8000187D187D387D387D387D387D387D387DC9
:103F9000587D58855885588559855985598559853D
:103FA000798D798D798D798D998D998D998D998D61
:103FB0009995B995BA95BA95BA95B995B995B995AE
:103FC000B995B995B995B995B99DB99DB99DD99D41
:103FD000DA9DDA9DDA9DDA9DFA9DFAA5FAA5FAA591
:103FE000FAA5FAA5FAA5FAA51AA61AA61AAE1AAE45
:103FF0001AAE3BAE3BAE5BAE5BB65BB65BB65BB6DA
:104000007BB67BB67BB67BB67BB65BB65BB65BB688
:104010005BB65BB65BB65BB65BB67BBE7BBE7BBEA0
:104020007BBE9BBE9BBE9BC69BC69BC69BC6BBC6A0
:10403000BBC6BBC6BBC69BC69BC69BC69BC6BBC6F8
:10404000BBC6BBC6BBC6BBCEBBCEBBCEBBCEDBCE20
:10405000DBCEDBCEDBCEDCCEDCCEDCCEFCD6FCD6C3
:10406000FCD6FCD6FCD6FCD6FCD6FCD6FCD6FCD6C0
:10407000FCD61CDF1CDF1CDF1CDF1CDF1CDF1CDF91
:104080001CDF1CDF3CDF3DDF3DDF3DDF3DE75DE763
:104090005DE77DE77DE77EEF9EEF9EEF9EEF9EEF73
:1040A000BEEFBEEFBEF7BEF7BEF7BEF7BEF7DFF757
:1040B000DEF7DFF7DFF7DFF7DFF7DFF7DFF7DFF751
:1040C000DFFFDFFFDFFFFFFFDFFF18C618C618C6E0
:1040D00018C6621062106210F40AF40AF40A140B93
:1040E000140B140B140B140B140B140B14131413C8
:1040F00014131413141334133413341334133413E8
:104100003413341334133413541B341B341B341B37
:10411000541B541B541B341B541B341B341B341BA7
:10412000341B341B331B33233423332353233323D4
:1041300053235323542353235323542353235423CC
:1041400054235423542B742B742B742B742B742BE7
:10415000742B742B742B742B742B943394339433EF
:10416000943394339433B433B433B433B43BB53B66
:10417000B53BD53BD53BF53BF53BF53BF543F6432E
:104180001644164416441644164416441644164C57
:10419000164C164C164C164C364C364C364C364C8F
:1041A000564C364C364C3654565456545654565437
:1041B00056545654565456545654765C7654765C3F
:1041C000765C765C765C765C765C765C765C765C5F
:1041D000965C96649664966496649664B6649664F7
:1041E000B664B66CB66CB76CB76CD76CD76CD76C62
:1041F000D76CD76CD774F774F774F774F774F774D7
:10420000F774F774F77417751775177D187D387D77
:10421000387D387D387D388558855885588558854E
:10422000588558855885588D598D798D798D998DFA
:10423000998D999599959995999599959995999516
:1042400099959995999599959995999599959995FE
:10425000B99DB99DB99DB99DD99DD99DD99DD99D2E
:10426000D99DD99DD99DD9A5D9A5FAA5F9A5FAA514
:104270001AA61AAE3AAE3AAE3BAE5BB65BB65BB6CA
:104280007BB65BB65BB65BB65BB65BB65AB65AB688
:104290003AB63AB63AB63AB63AB63AB65AB65AB65E
:1042A0005AB65AB67BBE7BBE7BBE7BBE7BBE7BBE98
:1042B0007BBE7BBE7BBE7BBE7BBE7BC67BBE7BC626
:1042C0007BC67BC69BC69BC69BC69BC69BC69BC626
:1042D000BBC69BC6BBCEBBCEBBCEBBCEBBCEDBCEA6
:1042E000DBCEDBCEDBCEDBD6DBD6DBD6DBD6DBD65E
:1042F000DBD6FBD6FCD6FCD6FCD6FCD6FCD6FCD650
:10430000FCD6FCDEFCDEFCDEFCDE1CDF1CDF3CDF62
:104310003DDF5DE75DE77DE77EE77EEF9EEF9EEFA9
:10432000BEEFBEEFBEF7BEF7BEF7BEF7DEF7DFF7B4
:10433000DFF7DFF7DFF7DFF7DFF7DFF7DFF7DFF7CD
:10434000DFF7DFFFDFFFDFFFFFFF18C618C618C665
:1043500018C6621062106210F40AF40AF40A140B10
:10436000140B140B140B140B140B140B1413141345
:104370001413141334133413341334133413341345
:10438000341334133413341334133413341B541BC5
:10439000541B341B341B341B341B341B331B331B87
:1043A000331B331B331B331B3323331B3323332385
:1043B000332333233323332333233323332333234D
:1043C000332353233323532B532B532B532B532B55
:1043D000532B532B532B732B732B732B733373333D
:1043E00073337333943394339433943394339433D7
:1043F000B433B43BB43BD53BD53BD53BF53BF53B68
:10440000F643154416441644164416441544154400
:10441000154415441544154C154C154C154C154CAC
:10442000154C354C364C364C354C3554354C355492
:1044300035543554355436545554555435545554D3
:104440005554555C555C555C555C555C555C555CEC
:10445000555C555C755C765C765C766476647664F7
:10446000766476649664966496649664B66CB66C6C
:10447000B66CB66CB66CD66CD66CD66CD66CD67484
:10448000D774D674D674D674D674F774F774F77C70
:10449000177D177D177D177D377D377D377D377DFC
:1044A000378538853885388558855885588D788D75
:1044B000798D798D798D798D788D788D788D788DD0
:1044C000788D788D588D788D788D788D78957895D4
:1044D000789598959895989598959895989DB89D64
:1044E000989D989D989DB89DB99DB99DD9A5D9A530
:1044F000D9A5FAA51AA61AAE3AAE3BAE3BAE3BAE74
:104500003BB65BB65BB63AB63AB63AAE3AAE1AAE20
:1045100019AE19AE19AE19AE19AE19AE19AE19B65B
:104520001AB63AB63AB65AB65AB65AB65ABE5ABE7B
:104530005ABE5ABE5ABE5AB63ABE5ABE3ABE3ABE23
:104540003ABE5ABE5ABE5ABE5ABE5ABE5ABE5ABECB
:104550007AC67AC67AC67AC67AC67AC67AC69AC63B
:104560009BC69AC69BC69ACE9BCE9BCE9BCE9BCE1D
:104570009BCE9BCEBBCEBBCEBBCEBBCEBBCEBBCE33
:10458000BBD6BBD6BBD6BBD6DBD6FBD6FBD6FCDEBA
:104590001CDF3CDF3CDF5DE75DE77DE77EEF9EEF04
:1045A000BEEFBEEFBEEFBEF7BEF7BEF7DFF7DEF73A
:1045B000DFF7DFF7DFF7DFF7DFF7DFF7DFF7DFF74B
:1045C000DFFFDFFFDFFFDFFFDFFF17BE18C618C604
:1045D00018C6621062106210F40AF40AF40A140B8E
:1045E000140B140B140B140B140B140B140B1413CB
:1045F00014131413341334133413341334133413C3
:1046000034133413341334133413341B341B341B5A
:10461000341B341B341B341B341B331B331B131B45
:10462000131B131B121B121B121B121B121B122318
:1046300012231223122312231223122312231223D2
:104640001223122312231223122332233223322B5A
:10465000322B322B322B322B322B522B522B532B11
:10466000522B532B533353337333733373337333AB
:104670009333943BB43BB43BB43BD53BD53BD53BA8
:10468000F543F543F543F543F543F543F543F5436A
:10469000F543F543F543F543F543F54BF54B154C21
:1046A000154C154C154C154C154C154C154C154C02
:1046B000154C154C154C15541554155415541554CA
:1046C00015541454145414541454145414541454A9
:1046D000345C345C345C355C355C555C555C555CF5
:1046E000555C555C556455645564556475647564D2
:1046F0007564956C966C966C966C966CB66CB66C94
:10470000B66CB66CB66CB66CB66CB674B674D67461
:10471000D674F674F674F77CF77CF77CF77CF77C3C
:10472000177D177D177D17853785378558855885FF
:104730005885588D588D588D588D588D588D578D5A
:10474000578D378D378D378D378D378D578D578DE9
:10475000578D578D579557955895789577957795A7
:10476000779577957795789578957895989D989D94
:10477000B89DB9A5D9A5F9A51AAE1AAE1AAE3AAE2A
:104780003AAE3AAE1AAE1AAE1AAEF9ADF9ADD9AD2F
:10479000D9A5D8A5D8A5D8A5D8A5D8A5D8ADD8AD20
:1047A000D8ADF9ADF9ADF9AD19B619B619B619B656
:1047B00019B619B619B6F9B5F9B5F8B5F8B5F8B529
:1047C000F8B5F8B5F8B518B619B619B619B619B6D8
:1047D00019B639BE39BE39BE39BE59BE59BE59BEE9
:1047E00059BE59BE59C659C659C659C659C65AC6E0
:1047F0005AC67AC67AC67AC67AC67AC67AC67AC6D9
:104800007AC67AC67AC67ACE9ACE9ACEBACEDBD697
:10481000DBD6FBD61CDF3CDF5DE75DE77DE77EEFA7
:104820009EEFBEEFBEEFBEF7BEF7BEF7BFF7BEF717
:10483000DFF7DFF7DFF7DFF7DFF7DFF7DFF7DFF7C8
:10484000DFFFDFF7DFFFDFFFFFFF17BE17BE18C672
:1048500018C6621062106210F40AF40A140BF40A0B
:10486000140B140B140B140B140B140B1413141340
:104870001413141334133413341334133413341340
:1048800034133413341334133413341B341B341BD8
:10489000341B341B341B331B131B131B131B121B26
:1048A000F21AF21AF21AF21AD11AF11AD11AD11A0C
:1048B000D11AD11AD11AF122D122D122F122F12218
:1048C000F122F122F122F122F122F122F122F12250
:1048D000F122F12AF122112B112B112B112B112B6B
:1048E000322B322B322B322B322B32335233523388
:1048F000723373337333933B943BB43BD43BD43B1D
:10490000D53BD543F543F543F543D543D443D44391
:10491000D443D443D443D443D443D443D443D443DF
:10492000D443D44BD44BF44BF44BD44BD44BD44B57
:10493000F44BD44BD44BF44BF44BF44BF44BF34BC0
:10494000D34BF34BF353F353D353F353F353F35387
:10495000F353F353F353F353F35313541354135CBC
:10496000135C145C145C145C145C345C345C346460
:10497000346454645564756475647564756C756CE1
:10498000756C756C756C756C756C756C956C956CDF
:104990009574B674B674D674D674D674D674D67448
:1049A000D674D674D67CF67CF67C177D1785178571
:1049B0003785378537853785378517851785168578
:1049C0001685F684F684F684F684F684F684F684F6
:1049D00016851685168D168D368D368D368D168D6F
:1049E000168D168D368D368D368D36955795579595
:1049F0007895989DB89DB9A5F9A5F9A51AAE1AAEF6
:104A00001AAE1AAEFAADF9ADD9A5D9A5B8A5B8A513
:104A100097A5979D979D779D979D779D979D97A526
:104A200097A597A5B8A5B8A5B8A5B8ADB8ADD8ADA8
:104A3000B8ADB8ADB7A5B7A597A597A597A597A504
:104A400097A597A597ADB7ADB7ADB7ADB7ADB7ADB6
:104A5000D7ADD8ADD8B5F8B5F8B5F8B5F8B5F8B55F
:104A6000F8B5F8B5F8B5F8B5F8B5F8BD18BE18BE84
:104A700018BE18BE18BE18BE18BE18BE18BE18BE86
:104A800018BE18BE38BE39BE39BE59C659C67ACE10
:104A90009ACEBBD6DBD6FCDE1CDF5DE75DE77DEFA3
:104AA0007EEF9EEFBEEFBEEFBEF7BEF7BEF7DFF7BD
:104AB000DFF7DFF7DFF7DFF7DFF7DFF7DFF7DFF746
:104AC000DFF7DFF7DFFFDFFFFFFF17BE18BE17BE00
:104AD00018C6620862106210F40AF40AF40A140B91
:104AE000140B140B140B140B140B140B140B1413C6
:104AF00014131413141334133413341334133413DE
:104B00003413341334133413341334133413341B65
:104B1000341B341B331B131B131B121BF21AF21A08
:104B2000D21AD11AD11AB11AB11AB01AB01AB01ACF
:104B3000B01AB01AB01AB01AB01AB01AB01AB0221D
:104B4000B022B022B022B022B022B022B022B022D5
:104B5000D022D022D022D022D022D022D02AF02A95
:104B6000F02AF12AF12A112B112B112B112B322BA8
:104B700032335233523373337333933B943BB43BEE
:104B8000D43BD43BD443D443D43BD443B443B443C5
:104B9000B343B343934393439343B343B343B343C5
:104BA000B343B343B343B343B343B343B343B34355
:104BB000B343B34BB34BB24BB24BB24BB24BB24B12
:104BC000B24BB24BB24BB24BB24BB24BB24BB24BFD
:104BD000B24BB24BB24BB253B253B253B253D253A5
:104BE000B253D253D253D253D253F253F35BF35B4B
:104BF000135C135C135C3464336434643464346471
:104C0000346434643464346434645464546C546C74
:104C1000746C746C756C956C9574957495749574CE
:104C2000957495749574B574B574D67CD67CF67C01
:104C3000F67CF67CF684F684F684F67CD67CD57C0D
:104C4000B57CB57CB57CB47CB47CB47CB47CB57CE0
:104C5000B57CD57CD584D584D584D584D584D584BC
:104C6000D584D584D584F584F584F58C168D168D80
:104C7000369557957795989DB89DD9A5D9A5F9A54D
:104C8000F9ADF9A5D9A5D9A5B8A5989D779D779D2A
:104C9000569D569536953695369536953695369574
:104CA0005695569D569D569D769D769D769D769DF4
:104CB000769D569D569D569D569D569D359D359D7E
:104CC000359D359D559D559D559D569D56A576A561
:104CD00076A576A576A596A596AD97AD97AD97AD39
:104CE00097AD97AD97ADB7ADB7ADB7ADB7ADB7AD04
:104CF000B7ADB7ADB7ADB7ADB7ADB7ADB7ADB6AD95
:104D0000B7ADB7B5B7B5D7B5D7B5F8BD18BE39BECD
:104D100059C67ACEBACEDBD6FCDE1CDF5DE75DE796
:104D20007DEF9EEF9EEFBEEFBEF7BEF7BEF7DEF75C
:104D3000DEF7DFF7DFF7DFF7DFF7DFF7DFF7DFF7C4
:104D4000DFFFDFFFDFFFDFFFDFFFF7BD17BE17C6A7
:104D500018BE620862106210F40AF40AF40A140B16
:104D6000F40A140B140B140B140B140B141314135C
:104D7000141314131413141334133413341334137B
:104D8000341334133413341334133413341B341BDB
:104D9000341B331B131B131B121BF21AD21AD11A0A
:104DA000B11AB01AB01AB01A8F1A8F1A8F1A8F1A36
:104DB0006F1A8F1A8F1A6F1A6F1A8F1A8F1A8F1A0B
:104DC0008F1A8F1A8F1A8F1A8E228E228E228F227E
:104DD0008E228F228F228F22AF22AF22AF22AF22CC
:104DE000AF22AF22CF2AD02AD02AF02AF02AF02AE6
:104DF000112B11333133323352337333933B933BA3
:104E0000B43BB43BB43BB43BB43BB43B933B933B6C
:104E1000933B723B723B723B723B723B723B724301
:104E200072437243724372437243724372437143DB
:104E300071437143714371437143714371437143D2
:104E400071437143514371437143714B714B714BCA
:104E5000714B714B714B714B714B714B714B714B72
:104E6000714B714B714B914B914B9153B153B25369
:104E7000B253D253D253D25BF25BF25BF25BF25B82
:104E8000F25BF25BF25BF25BF25B1364136433641C
:104E900033643464546C546C546C546C546C546C63
:104EA000546C546C746C746C747494749574B574A0
:104EB000B57CB57CD57CB57CB57CB57C947494749C
:104EC0007474737453745374537453745374537469
:104ED000737473747374737C737C747C947C737C50
:104EE000737C737C737C937C947C947CB484D58435
:104EF000F58C168D36955795779DB89DB8A5D9A593
:104F0000D9A5B8A5B8A5989D779D579D3695369596
:104F10001595F58CD48CD48CD48CD48CD48CD48C26
:104F2000F48CF58CF59415951595159515951595A5
:104F30001595F494F494F494D48CD494D48CD38CA8
:104F4000D38CD48CD48CD494F494F494F494F494BA
:104F50001495159D159D359D359D359D559D559DEA
:104F6000559D559D55A555A555A555A555A555A581
:104F700055A555A555A555A555A555A555A535A581
:104F800055A555A555A555A576AD96ADB6B5D7B5DC
:104F9000F8BD39C679C69ACEDBD6FBDE1CDF5DE7ED
:104FA0007DE79EEF9EEFBEEFBEF7BEF7BEF7BFF701
:104FB000DEF7DFF7DFF7DFF7DFF7DFF7DFF7DFF742
:104FC000DFF7DFFFDFFFDFFFDFFFF7BDF7BD17BE56
:104FD00018C6611062106208F40AF40AF40A140B8D
:104FE000140B140B140B140B140B140B140B140BC9
:104FF00014131413141334133413341334133413D9
:10500000341334133413341334133413341B341B58
:10501000341B331B131BF21AF21AD11AD11AB01A0D
:10502000B01A8F1A8F1A6F1A6E1A4E1A4E1A4E1A1B
:105030004E1A4D1A4D1A4D1A4D1A4D1A4D1A4D1A37
:105040004D1A4D1A4D1A4D1A4D1A4D1A4D1A4D1A28
:105050004D1A4D1A4D1A4D226D226D226E226E226E
:105060008E228E228E228E22AF22AF2AAF2ACF2A04
:10507000D02AF02A102B1133313352337333933B40
:10508000933B933B943BB33B933B933B723B723BD1
:10509000523B513B513B313B313B313B313B313B4F
:1050A000513B513B313B313B313B303B303B303B63
:1050B000303B303B303B303B304330433043304378
:1050C0003043304330432F430F4330432F432F436C
:1050D0003043304330432F432F432F432F432F433D
:1050E0002F432F4B2F4B2F4B304B504B504B704B74
:1050F000704B71539153915391539153B153B15399
:10510000B153B153B153B15BB15BD25BD25BF25BD4
:10511000F263136413641364136433643364336499
:1051200013641364136C336C336C536C546C746C75
:10513000747474747474747474745374536C336CC2
:10514000126C126C126CF26BF26BF16BF26BF26B15
:10515000126C126C126C326C326C126C32741274EF
:10516000126C12743274327432745274737C737CA5
:10517000B484D584F58C36955795779D989D989DE8
:10518000989D989D979D779D56953695158DD48CB5
:10519000B484B384938473847384728472847384B8
:1051A0009384938493849384B38CB38CB38CB38CA7
:1051B000938493849284728472847284528452841D
:1051C000528452845284728472849284928C928C1F
:1051D000B38CB38CB38CD394D394D394D394D3940F
:1051E000F394F494F494F494D394F494F494F494A1
:1051F000F394F394D394D394D394D394D394D39437
:10520000D394D394D394F49C149D349D55A576AD3A
:10521000B6B5D7B538BE79C69ACEDBD6FCDE3CDF54
:105220005DE77DEF9EEF9EEFBEEFBEF7BEF7BEF7E8
:10523000BFF7DFF7DFF7DFF7DFF7DFF7DFF7DFF7DE
:10524000DFF7DFF7DFFFDFFFDFFFF7BDF7BD17BEDB
:1052500017BE610861106210F40AF40AF40AF40A35
:10526000F40A140B140B140B140B140B140B14135F
:105270001413141314133413341334133413341356
:10528000341334133413341334133413341B341BD6
:10529000331B131BF31AF21AD21AD11AB01A901236
:1052A0008F126F124E124E122D122D122D122D1220
:1052B0000D120C120C120C1A0C120C1A0C1A0C1ADD
:1052C0000C1A0C1A0C1A0C1A0C1A0C1A0C1A0C1AAE
:1052D0000C1A0C1A0C1A0C1A2C1A2C1A2C1A2D2215
:1052E0004D224D226D226D226D228E228E228E2223
:1052F000AE2ACF2AD02AF02A1133313352337233F7
:10530000733B933B933B933B733B723B523B513B11
:105310003133103310331033103310331033103B4C
:10532000103B103B103BEF3AEF3AEF3AEF3AEF3ACF
:10533000EF3AEF3AEF3AEF3AEF3AEF3AEF3AEE3A26
:10534000EE3ACE3AEE3ACE3ACE3AEE3AEE3AEE3A7D
:10535000EE3AEE3AEE3AEE42EE42EE42EE42EE42E5
:10536000EE42EE42EE42EE42EE42EE420E430F437A
:105370002F4B2F4B4F4B504B504B704B704B705330
:105380007053705370537053705390539153B15B7B
:10539000D15BD25BF263F263F263F263F263F263B6
:1053A000F263D263D263D163F263F263126C326C44
:1053B000336C336C336C336C326C126CF26BF163A4
:1053C000D163B163B0639063906390639063B063A3
:1053D000B063B063B063D063D063D063D063D06395
:1053E000D063D063D063D06BD16BF16B116C32742E
:1053F000527C937CB484F58C168D57955795779D88
:10540000779D779D579556951595F58CD48C9384FB
:10541000737C527C327C3174117411741174117468
:105420001174317C317C317C327C327C527C317C19
:10543000317C117C117C1174F073F073F073F07394
:10544000F073F073F073F073107C107C117C317C7E
:10545000317C518452845284528472847284728466
:105460007284928C728C728C728C728C728C728C34
:10547000728C728C728C7284728471845184718487
:10548000718C718C728C928C928CB394F394149D69
:1054900055A596ADD7B538BE79CEBAD6FBD61CDFAA
:1054A0003DE75DE77EEF9EEFBEEFBEF7BEF7BEF7CE
:1054B000DEF7DEF7DFF7DFF7DFF7DFF7DFF7DFF73E
:1054C000DFF7DFF7DFF7DFFFDFFFF7BDF7BDF7BD82
:1054D00017BE610861086208F40AF40AF40A140BA2
:1054E000140B140B140B140B140B140B140B140BC4
:1054F00014131413141314133413341334133413F4
:105500003413341334133413341334133413341B5B
:105510001313131BF212F21AD112B11290126F125E
:105520004E124E122D120D120C120C12EC11EC1127
:10553000EB11EB11EB11EB11EB11EB11EB11EB118B
:10554000EB11CB11EB11CB11CA19CA19CA19CA191F
:10555000CA19CA19EA19EB19EB19EB19EB190B1A4D
:105560000B1A0C1A2C222C224C224D224D226D2279
:105570008E228E2AAF2ACF2AF02A113331335233AA
:10558000723B723B733B723B723B523B3133113384
:105590001033F032CF32CF32CF32CF32CE32CE32A2
:1055A000CE32CE32CE32CE32AE32AE32AE32AE327B
:1055B000AE32AE32AD32AD32AD32AD32AD32AD32F1
:1055C000AD32AD32AD32AD3AAD3AAD3AAD3AAD3ABB
:1055D000AD3AAD3AAD3AAD3AAD3AAD3AAD3AAD3A93
:1055E000AD3AAD3AAD3AAD3AAD3AAD3AAD3ACD425B
:1055F000CD42EE42EE420E4B0F4B2F4B2F4B2F4B1B
:105600002F4B2F4B2F4B2F4B4F4B4F5370539053D0
:105610009153B15BD15BD25BD25BD15BD15BB15BB0
:10562000B15BB15B905B905BB15BB15BD163D1630C
:10563000F263F263F263F163D163D163B063905BB1
:105640006F5B6F5B4F5B4F534E5B4E5B4E5B4E5BD6
:105650004F5B6F5B6F5B6F5B6F5B6F5B6F5B6F5B1A
:105660006F5B6F5B6F5B6F636F638F63B063F16BD7
:1056700011745274737CB484F58C168D36955795DD
:105680005795569556951595F58CB4847384527C30
:1056900032741174F073D06BD06BD06BB06BB06B95
:1056A000B06BD06BD06BD073D073D073D06BD06B2A
:1056B000AF6BAF6BAF6B8F6B8E6B8E6B6E6B6E6306
:1056C0006E636E6B6E6B8E6B8F6BAF6BAF73CF73E6
:1056D000CF73D073F073F073F07B107C107C107C70
:1056E000107C107C107C107C117C107C107C107C59
:1056F000107C107C107CF07BF07BF07BF07BF07BEF
:10570000F07BF07B107C107C31845184928CD3949C
:10571000149D55A596ADF7BD39C69ACEDBD6FBDEF6
:105720003CE75DE77DEF9EEF9EEFBEF7BEF7BEF76D
:10573000BEF7DEF7DFF7DFF7DFF7DFF7DFF7DFF7DB
:10574000DFF7DFF7DFF7DFFFDFFFF7BDF7BDF7BDFF
:10575000F7BD610861086108F40AF40AF40AF40A62
:10576000140B140B140B140B140B140B140B141339
:105770001413141314131413141334133413341391
:105780003413341334133413341334133413141BF9
:105790001313131BF21AD21AB11AB0128F126F120E
:1057A0004E122D120C12EC11EB11CB11CB11CB11AF
:1057B000CA11AA11AA11AA11AA11AA11AA11AA11F1
:1057C000AA11AA11AA11A911A911A911A911A91106
:1057D000A911A911A911A919AA19CA19CA19CA196D
:1057E000EA19EB19EB190B1A0B1A2C222C224C225A
:1057F0004D226D228E2AAF2ACF2AF02A113352333E
:1058000052337233723B523B5233313311331033C4
:10581000EF32CF32AE32AE2A8E2A8D2A8D2A8D2AD1
:105820008D2A8D2A8D328D328D2A8D328D326C2AC1
:105830006C2A6C326C326C326C326C326C326C3280
:105840006C326C326C328C328C328C328C328C32C8
:105850008C328C328C328C326C326C326C326B32D9
:105860006B326B326B326B326B326C3A8C3A8C3AF5
:10587000AC3AAD3AAD42CD42EE42EE42EE42EE429D
:10588000EE42EE4AEE4A0E4B0E4B2F4B4F4B50530F
:1058900070539053915BB15BB15BB15B905B905B7C
:1058A000705370536F536F536F536F53705B905BB4
:1058B000905BB05BB05B905B905B6F5B6F5B4F53DB
:1058C0002E530E530D530D53ED4AED52ED52ED5242
:1058D0000D530D530D530D530D530D530D530D53C8
:1058E0000D530D530D532E5B2E5B4E5B6F5B8F6321
:1058F000D06B116C3274737CB484F58C168D369534
:1059000036953695168DF58CD4849384527C3174FB
:10591000F173D06BAF6B8F638F636E636E636E6377
:105920006E636E636E636E636E636E636E636E63EF
:105930004E634D634D632D5B2D5B0D5B0D5B0D5B0E
:105940000D5B2D5B2D5B2D5B2D634D634E636E6395
:105950006E6B8E6B8E6BAF6BAF6BAF73AF73AF73E2
:10596000AF73AF73CF73CF73CF73CF73AF73AF73A7
:10597000AF73AF73AF73AF738E6B8E6B8E6B8E6BBB
:105980008E6B8E6BAE73AF73CF73107C3184728C61
:10599000B394149D75A5B7B518BE59C6BAD6FBDE2B
:1059A0001CDF5DE77DEF9EEF9EEFBEEFBEF7BEF71B
:1059B000BFF7DFF7DFF7DFF7DFF7DFF7DFF7DFF757
:1059C000DFF7DFF7DFFFDFFFDFFFF7BDF7BDF7BD75
:1059D000F7BD610861086108F40AF40AF40A140BBF
:1059E000140BF40A140B140B140B140B140B140BE0
:1059F000141314131413141314133413341334130F
:105A00003413341334133413341334133413141B76
:105A10001313F312F21AD112B11290126F124E1226
:105A20002D120C12EC11CB11CB11AA11AA11AA1133
:105A30008911891189118911891189118911891196
:105A40008911891189118911691168116811681109
:105A5000681188118911891189118911A911A91950
:105A6000A919CA19CA19EA19EB19EB190B222C2228
:105A70002C224D226D228E2AAF2AF02A1033313388
:105A8000523352335233523331333133F032EF32F7
:105A9000CF32AE2A8D2A6D2A6D2A6D2A4C2A4C2AC5
:105AA0004C2A4C2A4C2A4C2A4C2A4C2A4B2A4B2A48
:105AB0002B2A2B2A2B2A2B2A2B2A2B2A2B2A4B2A1E
:105AC0004B2A4B2A4B324C324C326C326C326C3299
:105AD0006C324B324B324B324B324B322B322B32FD
