:020000040000FA
:10000000680200106D01000075010000770100001A
:10001000790100007B0100007D010000000000006C
:100020000000000000000000000000007F01000050
:100030008101000000000000830100008501000034
:100040008701000087010000870100008701000090
:100050008701000087010000870100008701000080
:100060008701000087010000870100008701000070
:100070008701000087010000870100008701000060
:100080008701000087010000B50100008701000022
:100090008701000087010000870100008701000040
:1000A0008701000087010000870100008701000030
:1000B0008701000087010000870100008701000020
:1000C00087010000870100008701000000F002F8AE
:1000D00000F03CF80AA090E8000C82448344AAF1A6
:1000E0000107DA4501D100F031F8AFF2090EBAE8A4
:1000F0000F0013F0010F18BFFB1A43F0010318475C
:1001000088040000A8040000103A24BF78C878C111
:10011000FAD8520724BF30C830C144BF04680C600D
:10012000704700000023002400250026103A28BF55
:1001300078C1FBD8520728BF30C148BF0B60704759
:100140001FB500F0CAF81FBD10B510BD00F08BF848
:100150001146FFF7F5FF00F027F800F0A9F803B407
:10016000FFF7F2FF03BC00F0B1F800000948804738
:1001700009480047FEE7FEE7FEE7FEE7FEE7FEE789
:10018000FEE7FEE7FEE7FEE704480549034A054BA4
:100190007047000001030000CD000000680000105F
:1001A000680200106800001000F02AF900F021F841
:1001B00000BFFEE74FF001002249086022480068B6
:1001C00000F10100204908600846006810F0010FA6
:1001D00007D04FF00F001D4988654FF0F000C8654B
:1001E00006E04FF0F000194988654FF00F00C86530
:1001F00070474FF48010164908614FF0FF00134913
:100200000864C8654FF40070124908604FF001009F
:100210001149C1F848014FF00000104908604FF043
:1002200012004FF0010101FA00F14FEA50124FF0B5
:10023000E02303EB8202C2F8001100BF4FF001007F
:100240007047000040C10F400400001000C00920AA
:1002500000C00240B480024000C00F404CC10F40BB
:10026000704770477047754600F028F8AE460500A5
:100270006946534620F00700854618B020B5FFF7C1
:1002800083FFBDE820404FF000064FF000074FF01D
:1002900000084FF0000B21F00701AC46ACE8C009A4
:1002A000ACE8C009ACE8C009ACE8C0098D467047AD
:1002B0000446AFF300802046FFF751FF0048704727
:1002C00008000010004870470C0000100149182079
:1002D000ABBEFEE726000200704710B5FFF7F2FF45
:1002E0004FF00001016010BD0000000000000000A0
:1002F000000000000000000000000000FFFFFFFF02
:100300004FF0000108464FF020018D4A116000BFF8
:100310008B49096811F0400FFAD04FF00301894A68
:1003200011604FF00001884AC2F8A811874A116095
:100330004FF00101864A11604FF00B01854A1160B0
:100340004FF00101A2F1040211604FF0AA01824AAC
:1003500011604FF055017C4AC2F88C107C49096845
:10036000022907D000BF7B49091D096811F0806F81
:10037000F9D008E04FF00001084602E000F1010169
:1003800008466428FAD94FF00301744A11604FF00F
:10039000AA016D4AC2F88C104FF055016E4A1160E7
:1003A0004FF023016E4A11604FF00101A2F10402E7
:1003B00011604FF0AA016B4A11604FF055011160B6
:1003C00000BF6749091D096811F4806FF9D04FF02B
:1003D0000301654A11604FF0AA015B4AC2F8AC10F4
:1003E0004FF055015F4A11606049614A11604FF05A
:1003F0000001604A116043F23A01534A11607047AC
:100400005D480068C0F30160032868D15048006867
:1004100010F0030006D0012823D002283FD0032883
:100420005CD100E000BF54480068C0F30E0000F14A
:1004300001004FEA40014448D0F88800C0F307406B
:1004400000F10100B1FBF0F04C4900FB01F03D4927
:100450000968C9B201F10101B0FBF1F04849086037
:100460003CE045480068C0F30E0000F101004FEA8F
:1004700040013548D0F88800C0F3074000F1010082
:10048000B1FBF0F03F4900FB01F02E490968C9B209
:1004900001F10101B0FBF1F0394908601EE0364876
:1004A0000068C0F30E0000F101004FEA4001264849
:1004B000D0F88800C0F3074000F10100B1FBF0F074
:1004C0004FF4FA4100FB01F01E490968C9B201F17D
:1004D0000101B0FBF1F02A49086000BF2FE01C4881
:1004E000006810F0030006D0012810D0022819D0AF
:1004F000032823D100E000BF12480068C0B200F119
:1005000001001E49B1FBF0F01D49086016E00D48DE
:100510000068C0B200F101001A49B1FBF0F01849BF
:1005200008600BE007480068C0B200F101004FF41A
:10053000FA41B1FBF0F01249086000BF00BF7047FC
:10054000A0C10F4004C10F4000C00F40ACC10F401C
:100550000CC10F4084C00F408CC00F4080C00F40C2
:10056000A4C00F40ACC00F40A0C00F40DE872804DD
:10057000C4C00F40C8C10F4088C00F4000093D00F3
:1005800000000010001BB700A805000000000010CC
:100590000800000008010000B0050000080000107D
:1005A000600200002401000000093D00000000007E
:04000005000000CD2A
:00000001FF
