:020000040000FA
:0402FC00FFFFFFFF02
:020000041000EA
:10000000481E00103D020010410200104302001083
:1000100045020010470200104902001000000000D5
:100020000000000000000000000000004B02001073
:100030004D020010000000004F020010510200109D
:10004000530200105302001053020010530200101C
:10005000530200105302001053020010530200100C
:1000600053020010530200105302001053020010FC
:1000700053020010530200105302001053020010EC
:10008000530200105302001083070010B90700103C
:1000900053020010530200105302001053020010CC
:1000A00053020010530200105302001053020010BC
:1000B000990300106B0300103D0300100F030010A4
:1000C0000348854600F054FD00480047D500001065
:1000D000481E001000F085F864211D48006800F0FB
:1000E00031FD441E2146002000F0A6FB002000F058
:1000F0007EFB184800684021084316490860012229
:100100000021022000F0D0FA21E013480068002806
:1001100008D011480068322804D800221146022075
:1001200000F0B7FA0C480068322809D90A4800687C
:10013000642805D801220021022000F0AAFA06E076
:1001400005480068642802D9002003490860DCE7FC
:10015000081C0010808004402C1C00102F49304ADD
:10016000116001212F4A116051600021516001216D
:10017000516000BF2B494968C907C90FFAD02A4905
:100180008868400A40022021014303221143264A85
:1001900091602649896B80229143244A916300BF74
:1001A0002149C968C907C90FFAD003211D4A116343
:1001B00001215163002151630121516300BF19499D
:1001C000496BC907C90FFAD00121164A9163144936
:1001D00009688900164A116011460968154A1160BC
:1001E000704700B5012010490860002008620F48E0
:1001F000806B202188430D498863002300E05B1C4D
:10020000FF2BFCD9FFF7AAFF064840300068012108
:10021000090408430849086000BD0000001BB7003E
:10022000001C001040800440008004400082044014
:10023000041C0010081C0010808004400548004782
:10024000FEE7FEE7FEE7FEE7FEE7FEE7FEE7FEE786
:10025000FEE7FEE7C1000010002806D001280CD000
:10026000022812D0032820D117E0FB4AD2690123CB
:100270008B401A43F84BDA6118E0F84AD26901233F
:100280008B401A43F54BDA6110E0F54AD26901233D
:100290008B401A43F24BDA6108E0F24AD26901233B
:1002A0008B401A43EF4BDA6100E000BF00BF70479C
:1002B00010B502460020002A06D0012A0CD0022ADE
:1002C00012D0032A20D117E0E34B9B6901248C4014
:1002D000234200D0012018E0E04B9B6901248C40B0
:1002E000234200D0012010E0DD4B9B6901248C40AB
:1002F000234200D0012008E0DA4B9B6901248C40A6
:10030000234200D0012000E000BF00BF10BD10B5A7
:10031000D5480068401CD449086001210020FFF73F
:10032000C7FF0446002C08D0D0480068401CCF49C5
:10033000086001210020FFF78FFF10BD10B5CC48E9
:100340000068401CCA49086001210846FFF7B0FF59
:100350000446002C08D0C7480068401CC549086006
:1003600001210846FFF778FF10BD10B5C2480068AC
:10037000401CC149086001210220FFF799FF044693
:10038000002C08D0BD480068401CBC490860012111
:100390000220FFF761FF10BD10B5B9480068401C8E
:1003A000B749086001210320FFF782FF0446002CB3
:1003B00008D0B4480068401CB249086001210320FD
:1003C000FFF74AFF10BD10B5AF4800684021084351
:1003D000AD4908601F2000F08EF91E2000F08BF957
:1003E0001D2000F088F91C2000F085F910BD70B5C3
:1003F000049C002806D0012838D002286AD003289F
:100400007BD19CE0002A18D1934D6D6801268E4067
:10041000B543914E7560002B07D13546AD68012676
:100420008E40B5438C4EB5600EE08B4DAD68012615
:100430008E403543884EB56006E0874D6D680126D5
:100440008E403543844E7560002C07D1824DED6897
:1004500001268E40B543804EF56006E07E4DED6886
:1004600001268E4035437C4EF5609DE0002A18D170
:100470007A4D6D6801268E40B543784E7560002B2D
:1004800007D13546AD6801268E40B543734EB56041
:100490000EE0724DAD6801268E4035436F4EB5605B
:1004A00006E06E4D6D6801268E4035436B4E7560DB
:1004B000002C07D1694DED6801268E40B543674E8B
:1004C000F56006E0654DED6801268E403543634ECC
:1004D000F56069E0002A19D1614D6D6801268E40F2
:1004E000B5435F4E7560002B08D13546AD680126D7
:1004F0008E40B5435A4EB5600FE054E0584DAD689C
:1005000001268E403543564EB56006E0544D6D6869
:1005100001268E403543524E7560002C07D1504D58
:10052000ED6801268E40B5434D4EF56006E04C4D1A
:10053000ED6801268E403543494EF56034E0002ACF
:1005400018D1484D6D6801268E40B543454E756003
:10055000002B07D13546AD6801268E40B543414E8C
:10056000B5600EE03F4DAD6801268E4035433D4EEF
:10057000B56006E03B4D6D6801268E403543394E2F
:100580007560002C07D1374DED6801268E40B543CC
:10059000344EF56006E0334DED6801268E4035435C
:1005A000304EF56000E000BF00BF70BD002806D0EF
:1005B00001280CD0022812D0032820D117E0264AA7
:1005C000126901238B401A43234B1A6118E0234A16
:1005D000126901238B401A43204B1A6110E0204A14
:1005E000126901238B401A431D4B1A6108E01D4A12
:1005F000126901238B401A431A4B1A6100E000BFB5
:1006000000BF7047002806D001280CD0022812D065
:1006100003283BD117E0104A126901238B409A430B
:100620000D4B1A6133E00D4A126901238B409A4346
:100630000A4B1A612BE00A4A126901238B409A4344
:10064000074B1A6123E0074A136901228A4093434A
:10065000044A13611BE0000000800050008001503C
:1006600000800250008003500C1C00101C1C001065
:10067000101C0010201C0010141C0010241C001062
:10068000181C0010281C00108080044000BF00BF10
:10069000704730B513468B4084001A4D2D59012404
:1006A0008C40A4002B5130BD30B5002A11D08300FE
:1006B000144CE3580124E4031B191B6801248C40EB
:1006C000234384000F4D2C590125ED036419236049
:1006D00010E083000B4CE3580124E4031B191B6852
:1006E00001248C40A3438400064D2C590125ED03C1
:1006F0006419236030BDC206D20E01219140024A26
:1007000011607047B40B001000E100E070B50446C2
:100710000D46002C19D10220F64948600020C8601F
:10072000F549F648006800F00DFA6843F149886120
:10073000FF200860042048610120486000BFED48A8
:100740004068C007C00FFAD11AE0012C18D102206E
:10075000EB4948600020C860E749E848006800F0BD
:10076000F1F96843E6498861FF2008600420486188
:100770000120486000BFE2484068C007C00FFAD1BE
:1007800070BDDC480068C007C00F07D00120D94900
:100790000860DC480068401CDA490860D5480068F9
:1007A0001021084207D01020D2490860D6480068BE
:1007B000401CD54908607047D1480068C007C00F89
:1007C00007D00120CE490860D0480068401CCF49BE
:1007D0000860CB4800681021084207D01020C849A3
:1007E0000860CB480068401CC94908607047002871
:1007F00003D10121BF4A516002E00121C04A51608A
:100800007047002803D10021BA4A516002E000215C
:10081000BB4A516070470146002906D1B54A50686D
:1008200002221043B34A506005E0B54A50680222E4
:100830001043B34A5060704770B504460D46002C13
:1008400044D1B4480068012149020843B149086015
:10085000B148006AC008C000AF4908620846006A93
:1008600002210843AC4908620846406AC008C0003B
:1008700048620846406A02210843A7494862084680
:10088000806AC008C00088620846806A0221084366
:10089000A1498862A1480069C008C0009F49086159
:1008A00008460069022108439C49086100209549D7
:1008B0000860954908608F48856105208D498862E8
:1008C00003204861122000F00DF922E0012C20D114
:1008D00090480068A10208438E4908608E4840692C
:1008E000C008C0008C49486108464069022108439D
:1008F0008949486100208549086085490860804829
:10090000856105207E49886203204861132000F03C
:10091000E9F870BD30B505460C4613462846FFF78A
:1009200070FF012D5ED17B480068A9020843794918
:1009300008607B4818437249C863D807C00F0CD0C1
:1009400075484038C06BC008C0007649C863084687
:10095000C06B032108437349C863022003420BD0D4
:100960006D480068C008C0006B4908600846006810
:100970000321084368490860042003420BD06648FD
:100980000069C008C0006449086108460069032185
:10099000084361490861082003420BD05E48406962
:1009A000C008C0005C49486108464069022108430C
:1009B00059494861082018435B4948635B48046013
:1009C00000684F49486259480068400888615748A4
:1009D00000684008C86155480068400808625448EB
:1009E00048614DE04B4800680121490208434949EC
:1009F0000860504818433F49C863022003420BD0A7
:100A00004548806AC008C000434988620846806A39
:100A10000221084340498862042003420BD03F482A
:100A20000069C008C0003D4908610846006902210C
:100A300008433A490861082003420BD03948406B0B
:100A4000C008C000374948630846406B032108438B
:100A500034494863082018433749486337480460DD
:100A60000068244948623548006888613348006856
:100A70004008C86131480068400808622C48486155
:100A800030BD002816D0002906D0012907D0022940
:100A900008D003290CD108E0194B9A6109E0184BE2
:100AA000DA6106E0164B1A6203E0154B5A6200E069
:100AB00000BF16E0002906D0012907D0022908D07E
:100AC00003290CD108E00B4B9A6109E0094BDA616C
:100AD00006E0084B1A6203E0064B5A6200E000BFD2
:100AE00000BF7047C206D20E01219140144A116026
:100AF0007047000000400140E8030000081C00109F
:100B0000008001402C1C0010341C0010301C001010
:100B1000381C0010808004408040044000400440A5
:100B2000980500004040044040800140401C0010F7
:100B30000004000058060000404001403C1C00102A
:100B400000E100E030B50B460146002020220124E0
:100B500009E00D46D5409D4205D31D469540491BF1
:100B60002546954040191546521E002DF1DC30BD3A
:100B7000064C0125064E05E02046E36807C82B43D6
:100B800098471034B442F7D3FFF79EFAC40B001015
:100B9000D40B001002E008C8121F08C1002AFAD1C5
:100BA00070477047002001E001C1121F002AFBD1ED
:100BB000704700000000005000000150000002508B
:100BC00000000350D40B0010001C00104400000073
:100BD000940B0010001BB700001BB700001BB700F0
:100BE0000000000000000000000000000000000005
:100BF00000000000000000000000000000000000F5
:100C000000000000000000000000000000000000E4
:080C10000000000000000000DC
:04000005100000C126
:00000001FF
