:020000040000FA
:10000000A80200106D0100007501000077010000DA
:10001000790100007B0100007D010000000000006C
:100020000000000000000000000000007F01000050
:100030008101000000000000830100008501000034
:1000400087010000010600008B0600008701000008
:100050008701000087010000870100008701000080
:100060008701000087010000870100008701000070
:100070008701000087010000870100008701000060
:100080008701000087010000870100008701000050
:100090008701000087010000870100008701000040
:1000A0008701000087010000870100008701000030
:1000B0008701000087010000870100008701000020
:1000C00087010000870100008701000000F002F8AE
:1000D00000F03CF80AA090E8000C82448344AAF1A6
:1000E0000107DA4501D100F031F8AFF2090EBAE8A4
:1000F0000F0013F0010F18BFFB1A43F0010318475C
:10010000B4080000D4080000103A24BF78C878C1B1
:10011000FAD8520724BF30C830C144BF04680C600D
:10012000704700000023002400250026103A28BF55
:1001300078C1FBD8520728BF30C148BF0B60704759
:100140001FB500F0D0F81FBD10B510BD00F091F83C
:100150001146FFF7F5FF00F027F800F0AFF803B401
:10016000FFF7F2FF03BC00F0B7F800000948804732
:1001700009480047FEE7FEE7FEE7FEE7FEE7FEE789
:10018000FEE7FEE7FEE7FEE704480549034A054BA4
:100190007047000001030000CD000000A80000101F
:1001A000A8020010A800001000F02AF94FF00F007C
:1001B0002A490864C8654FF00000044609E0284950
:1001C000E0B200F004FBE0B200F09CFA04F10100A0
:1001D0000446022CF3D33FE02248006838B121489E
:1001E0000068142803D84FF004001C4988651D4896
:1001F0000068142808D91B480068282804D84FF044
:1002000004001649C86507E016480068282803D985
:100210004FF00000134908601348006838B11248D5
:100220000068142803D84FF008000C4988650E4870
:100230000068142808D90C480068282804D84FF012
:1002400008000649C86507E007480068282803D960
:100250004FF0000004490860BEE7000000C009201C
:100260008F5F010004000010080000107047704705
:100270007047754600F028F8AE46050069465346BB
:1002800020F00700854618B020B5FFF77DFFBDE8D8
:1002900020404FF000064FF000074FF000084FF0ED
:1002A000000B21F00701AC46ACE8C009ACE8C0097E
:1002B000ACE8C009ACE8C0098D4670470446AFF30E
:1002C00000802046FFF74BFF0048704744000010B5
:1002D000004870474800001001491820ABBEFEE7F7
:1002E00026000200704710B5FFF7F2FF4FF0000143
:1002F000016010BD0000000000000000FFFFFFFFD4
:100300004FF0000108464FF020018D4A116000BFF8
:100310008B49096811F0400FFAD04FF00301894A68
:1003200011604FF00001884AC2F8A811874A116095
:100330004FF00101864A11604FF00B01854A1160B0
:100340004FF00101A2F1040211604FF0AA01824AAC
:1003500011604FF055017C4AC2F88C107C49096845
:10036000022907D000BF7B49091D096811F0806F81
:10037000F9D008E04FF00001084602E000F1010169
:1003800008466428FAD94FF00301744A11604FF00F
:10039000AA016D4AC2F88C104FF055016E4A1160E7
:1003A0004FF023016E4A11604FF00101A2F10402E7
:1003B00011604FF0AA016B4A11604FF055011160B6
:1003C00000BF6749091D096811F4806FF9D04FF02B
:1003D0000301654A11604FF0AA015B4AC2F8AC10F4
:1003E0004FF055015F4A11606049614A11604FF05A
:1003F0000001604A116043F23A01534A11607047AC
:100400005D480068C0F30160032868D15048006867
:1004100010F0030006D0012823D002283FD0032883
:100420005CD100E000BF54480068C0F30E0000F14A
:1004300001004FEA40014448D0F88800C0F307406B
:1004400000F10100B1FBF0F04C4900FB01F03D4927
:100450000968C9B201F10101B0FBF1F04849086037
:100460003CE045480068C0F30E0000F101004FEA8F
:1004700040013548D0F88800C0F3074000F1010082
:10048000B1FBF0F03F4900FB01F02E490968C9B209
:1004900001F10101B0FBF1F0394908601EE0364876
:1004A0000068C0F30E0000F101004FEA4001264849
:1004B000D0F88800C0F3074000F10100B1FBF0F074
:1004C0004FF4FA4100FB01F01E490968C9B201F17D
:1004D0000101B0FBF1F02A49086000BF2FE01C4881
:1004E000006810F0030006D0012810D0022819D0AF
:1004F000032823D100E000BF12480068C0B200F119
:1005000001001E49B1FBF0F01D49086016E00D48DE
:100510000068C0B200F101001A49B1FBF0F01849BF
:1005200008600BE007480068C0B200F101004FF41A
:10053000FA41B1FBF0F01249086000BF00BF7047FC
:10054000A0C10F4004C10F4000C00F40ACC10F401C
:100550000CC10F4084C00F408CC00F4080C00F40C2
:10056000A4C00F40ACC00F40A0C00F40DE872804DD
:10057000C4C00F40C8C10F4088C00F4000093D00F3
:1005800000000010001BB700E8B94FF002024FF066
:1005900040235A604FF00002DA6042F2273201FB3A
:1005A00002F29A614FF0FF021A604FF004025A61A2
:1005B0004FF001025A6000BF4FF04022526812F023
:1005C000010FF9D11BE0012819D14FF00202E84BCD
:1005D0005A604FF00002DA6042F2273201FB02F269
:1005E0009A614FF0FF021A604FF004025A6102460E
:1005F0005A6000BFDE4A526812F0010FFAD170470C
:100600004FF04020006810F0010F0AD04FF00100B9
:100610004FF040210860D748006800F10100D5493B
:1006200008604FF04020006810F0020F0AD04FF031
:1006300002004FF040210860CF48006800F101003F
:10064000CD4908604FF04020006810F0100F0AD02C
:100650004FF010004FF040210860C848006800F1DA
:100660000100C64908604FF04020006810F0200FDC
:100670000AD04FF020004FF040210860C0480068C9
:1006800000F10100BE4908607047B948006810F0E9
:10069000010F09D04FF00100B5490860B948006862
:1006A00000F10100B7490860B148006810F0020F7E
:1006B00009D04FF00200AE490860B348006800F16D
:1006C0000100B1490860AA48006810F0100F09D075
:1006D0004FF01000A6490860AC48006800F1010026
:1006E000AA490860A248006810F0200F09D04FF016
:1006F00020009F490860A648006800F10100A44955
:100700000860704728B94FF001014FF04022516056
:1007100012E0012803D10146954A51600CE00228FD
:1007200004D14FF001019B4A516005E0032803D139
:100730004FF00101984A5160704728B94FF000010D
:100740004FF04022516013E0012804D14FF0000126
:10075000874A51600CE0022804D14FF000018D4A15
:10076000516005E0032803D14FF00001894A516030
:100770007047014651B94FF040225268104640F090
:10078000020210464FF0402250601FE0012908D1BC
:10079000774A5268104640F002021046744A506090
:1007A00014E0022908D17B4A5268104640F0020248
:1007B0001046784A506009E0032907D1764A52680A
:1007C000104640F002021046734A506070472DE90F
:1007D000F04106460F46002E5BD166490860664927
:1007E000086066490860664908606C48006840F027
:1007F00002006B49C1F8C4006A48C06820F070600C
:100800006849C8600846C06840F07060C8604FF032
:100810000F004FF04021086063480068C0F3810575
:1008200035B1012D09D0022D0AD0032D0DD000BF06
:100830005E4800684FEA90040CE05C48046809E0F8
:100840005A4800684FEA500404E0584800684FEAEC
:10085000D00400BF00BF5648B4FBF0F04FF0402179
:10086000C86042F210708861C8610846C06B20F40D
:100870007F60C8630846C06B40F0F000C8634FF06B
:100880001B0048614FF0010000F062F80120BDE854
:10089000F081012E5AD14FF000003A4908603A49E0
:1008A00008603A4908603A4908603C48006840F0EE
:1008B00004003B49C1F8C4003A48C06820F4432012
:1008C0003849C8600846C06840F44320C8604FF00B
:1008D0000F002749086034480068C0F3011535B19E
:1008E000012D09D0022D0AD0032D0DD000BF2F48B5
:1008F00000684FEA90040CE02C48046809E02B489B
:1009000000684FEA500404E0284800684FEAD00429
:1009100000BF00BF2648B4FBF0F01549C86042F2A2
:1009200010708861C8610846C06B20F47F60C8639E
:100930000846C06B40F0F000C8634FF01B004861F0
:100940004FF0020000F004F80120A0E700209EE72D
:1009500000F01F024FF0010101FA02F14FEA5012BC
:100960004FF0E02303EB8202C2F800117047000051
:10097000008000400400001014000010240000104B
:1009800034000010080000101800001028000010AB
:10099000380000100000094000400940C4C00F406A
:1009A00000C00F4000C00240A8C10F40000000106E
:1009B00040420F00D4090000000000104400000075
:1009C00008010000180A0000440000106402000042
:1009D0002401000000093D000000000000000000AC
:1009E0000000000000000000000000000000000007
:1009F00000000000000000000000000000000000F7
:100A000000000000000000000000000000000000E6
:080A10000000000000000000DE
:04000005000000CD2A
:00000001FF
