:020000040000FA
:100000005802001075030000790300007B03000014
:100010007D0300007F03000081030000000000005A
:10002000000000000000000000000000830300004A
:100030008503000000000000870300008903000022
:100040008B0300008B0300008B0300008B03000078
:100050008B0300008B0300008B0300008B03000068
:100060008B0300008B0300008B0300008B03000058
:100070008B0300008B0300008B0300008B03000048
:100080008B0300008B0300008B0300008B03000038
:100090008B030000D50000008B0300008B030000E1
:1000A0008B0300008B0300008B0300008B03000018
:1000B0008B0300008B0300008B0300008B03000008
:1000C0000348854600F09AF9004800479103000074
:1000D0005802001070B500BF634A9268D0B2401059
:1000E0004007400F032820D15F4A5269D1B29E22B7
:1000F000114205D05D4A11605B4A1268D3B270BDEF
:10010000CA07D20F3ED0584C2468E5B2584C22683A
:10011000541C574E3460574CA55432461268402A3E
:1001200030D10022344622602CE0022811D14E4CFE
:100130002468E5B24E4C2268541C4D4E34604D4C40
:10014000A55432461268402A1CD10022344622604F
:1001500018E0062807D1454A1268FF2401342243DB
:10016000424C22600EE001280CD13F4A5269D1B2C4
:100170002022114203D001223F4C227002E00022D3
:100180003D4C227000BFBAE7F8B5044601203A4959
:100190000870002036490860152001218140374A47
:1001A000116000BF3648406AC008C0003449486248
:1001B0000846406A01210843314948620846806A7E
:1001C000C008C00088620846806A012108432C49A3
:1001D00088622C4800682C4908432A49086001209D
:1001E000886183202049C8602648876939462748A6
:1001F000006800F0EDF806092146304600F0E8F806
:100200000546280A18494860E8B208600320C8601B
:10021000072088600846476900BF1348406960218D
:1002200008406028F9D101E00F4807680E4840698E
:10023000C007C00FF8D1152001218140144A116078
:1002400000BF052008494860F8BD0AE000BF064A23
:10025000526920231A42FAD00278034B1A60401CDC
:10026000491E0029F2D170470080004008000010AC
:1002700004000010180000100000001080E100E0F1
:1002800080400440808004400010000014000010F2
:1002900000E100E02F49304A116001212F4A11602E
:1002A0005160002151600121516000BF2B49496814
:1002B000C907C90FFAD02A498868400A400220219C
:1002C000014303221143264A91602649896B80220B
:1002D0009143244A916300BF2149C968C907C90FE6
:1002E000FAD003211D4A116301215163002151639A
:1002F0000121516300BF1949496BC907C90FFAD0E1
:100300000121164A9163144909688900164A11604F
:1003100011460968154A1160704700B5022010495E
:100320000860002008620F48806B202188430D4937
:100330008863002300E05B1CFF2BFCD9FFF7AAFFBA
:100340000648403000680121090408430849086054
:1003500000BD0000001BB7000C00001040800440EE
:1003600000800440008204401000001014000010BF
:100370008080044005480047FEE7FEE7FEE7FEE711
:10038000FEE7FEE7FEE7FEE7FEE7FEE7C10000004E
:10039000FFF7C3FFE1204002FFF7F6FE11E0094836
:1003A000006800280DD0062007494860054801680C
:1003B0000648FFF74AFF002002490860072002496B
:1003C0004860ECE7040000100080004018000010B6
:1003D00030B50B46014600202022012409E00D46DD
:1003E000D5409D4205D31D469540491B2546954065
:1003F00040191546521E002DF1DC30BD064C01257A
:10040000064E05E02046E36807C82B4398471034A2
:10041000B442F7D3FFF758FE400400005004000038
:1004200002E008C8121F08C1002AFAD170477047BD
:10043000002001E001C1121F002AFBD1704700001B
:10044000500400000000001018000000200400000C
:10045000010000000000000000000000001BB700C9
:08046000001BB700001BB700F0
:04000005000000C136
:00000001FF
