:020000040000FA
:10000000F80200104D0100005501000057010000EA
:10001000590100005B0100005D01000000000000CC
:100020000000000000000000000000005F01000070
:100030006101000000000000630100006501000094
:100040006701000067010000670100006701000010
:1000500067010000850500004306000067010000FD
:1000600067010000670100006701000067010000F0
:1000700067010000670100006701000067010000E0
:1000800067010000670100006701000067010000D0
:1000900067010000670100006701000067010000C0
:1000A00067010000670100006701000067010000B0
:1000B00067010000670100006701000067010000A0
:1000C00067010000670100006701000000F002F80E
:1000D00000F02DF80AA090E8000C82448344AAF1B5
:1000E0000107DA4501D100F022F8AFF2090EBAE8B3
:1000F0000F0013F0010F18BFFB1A43F0010318475C
:100100005C0100006C010000103A24BF78C878C17F
:10011000FAD8520724BF30C830C144BF04680C600D
:1001200070471FB500F093F81FBD10B510BD00F06B
:1001300054F81146FFF7F5FF00F026F800F072F8CA
:1001400003B4FFF7F2FF03BC00F07AF809488047D8
:1001500009480047FEE7FEE7FEE7FEE7FEE7FEE7A9
:10016000FEE7FEE7FEE7FEE704480549034A054BC4
:100170007047000001030000CD000000F8000010EF
:10018000F8020010F800001000F037F94FF4165193
:10019000002000F0B5FA15E00B48006890B14FF070
:1001A00006000A4948600848026809494FF0000003
:1001B00000F041FB4FF00000034908604FF00700DA
:1001C00002494860E8E700000800001000C0004055
:1001D00018000010704770477047754600F028F807
:1001E000AE4605006946534620F00700854618B024
:1001F00020B5FFF7B9FFBDE820404FF000064FF0F3
:1002000000074FF000084FF0000B21F00701AC464B
:10021000ACE8C009ACE8C009ACE8C009ACE8C0096A
:100220008D4670470446AFF300802046FFF788FFF5
:100230000048704798000010004870479C0000106C
:1002400001491820ABBEFEE726000200704710B53A
:10025000FFF7F2FF4FF00001016010BDE008000061
:10026000000000101800000008010000000000005D
:10027000000000000000000000000000000000007E
:10028000000000000000000000000000000000006E
:10029000000000000000000000000000000000005E
:1002A000000000000000000000000000000000004E
:1002B000000000000000000000000000000000003E
:1002C000000000000000000000000000000000002E
:1002D000000000000000000000000000000000001E
:1002E000000000000000000000000000000000000E
:1002F000000000000000000000000000FFFFFFFF02
:100300004FF000004FF020018C4A116000BF8B4974
:10031000096811F0400FFAD04FF00301884A1160CC
:100320004FF00001874AC2F8A811874A11604FF0C8
:100330000101864A11604FF00B01854A11604FF0B0
:100340000101A2F1040211604FF0AA01814A11607B
:100350004FF055017B4AC2F88C107C49096802298C
:1003600007D000BF7A49091D096811F0806FF9D0E4
:1003700006E04FF0000001E000F101006428FBD925
:100380004FF00301744A11604FF0AA016D4AC2F8A0
:100390008C104FF055016F4A11604FF023016F4AE6
:1003A00011604FF00101A2F1040211604FF0AA01A7
:1003B0006B4A11604FF05501116000BF6749091D7C
:1003C000096811F4806FF9D04FF00301654A11609C
:1003D0004FF0AA015B4AC2F8AC104FF05501604AD9
:1003E00011606149614A11604FF00001604A11607B
:1003F00043F23A01534A116070475E480068C0F307
:100400000160032868D15148006810F0030006D04D
:10041000012823D002283FD003285CD100E000BF90
:1004200054480068C0F30E0000F101004FEA40019B
:100430004448D0F88800C0F3074000F10100B1FB48
:10044000F0F04D4900FB01F03D490968C9B201F1E6
:100450000101B0FBF1F0494908603CE04548006803
:10046000C0F30E0000F101004FEA40013548D0F81A
:100470008800C0F3074000F10100B1FBF0F04049F3
:1004800000FB01F02E490968C9B201F10101B0FB7E
:10049000F1F03A4908601EE036480068C0F30E00EB
:1004A00000F101004FEA40012648D0F88800C0F36F
:1004B000074000F10100B1FBF0F04FF4FA4100FBFE
:1004C00001F01F490968C9B201F10101B0FBF1F067
:1004D0002A49086000BF2FE01C48006810F00300A4
:1004E00006D0012810D0022819D0032823D100E01B
:1004F00000BF13480068C0B200F101001E49B1FB03
:10050000F0F01E49086016E00D480068C0B200F126
:1005100001001B49B1FBF0F0184908600BE00848E6
:100520000068C0B200F101004FF4FA41B1FBF0F0F5
:100530001249086000BF00BF70470000A0C10F4013
:1005400004C10F4000C00F40ACC10F400CC10F40B0
:1005500084C00F408CC00F4080C00F40A4C00F402B
:10056000ACC00F40A0C00F40DE872804C4C00F40BD
:10057000C8C10F4088C00F4000093D0000000010B6
:10058000001BB70030B500BFC84B9B68D8B24FEA1C
:10059000600000F00700032822D1C44B5B69D9B288
:1005A00011F09E0F05D0C24B1960C04B1B68DAB228
:1005B00030BD11F0010F42D0BC4B1B68BD4CBE4D8D
:1005C0002D686355BC4B1B6803F10103BA4C2360D3
:1005D00023461B68402B32D14FF0000323602EE0EE
:1005E000022813D1B14B1B68B24CB34D2D68635533
:1005F000B14B1B6803F10103AF4C236023461B681A
:10060000402B1CD14FF00003236018E0062806D1D0
:10061000A74B1B6843F48073A54C23600FE00128AF
:100620000DD1A24B5B69D9B211F0200F03D0034664
:10063000A24C237003E04FF00003A04C237000BFD6
:10064000B6E730B500BF9E4B9B68D8B24FEA60005A
:1006500000F00700032822D1994B5B69D9B211F051
:100660009E0F05D0974B1960954B1B68DAB230BDD1
:1006700011F0010F42D0924B1B68934C934D2D68A3
:100680006355924B1B6803F10103904C2360234692
:100690001B68402B32D14FF0000323602EE002286C
:1006A00013D1874B1B68884C884D2D686355874B49
:1006B0001B6803F10103854C236023461B68402B14
:1006C0001CD14FF00003236018E0062806D17D4BB3
:1006D0001B6843F480737B4C23600FE001280DD12D
:1006E000774B5B69D9B211F0200F03D00346784CE9
:1006F000237003E04FF00003754C237000BFB6E792
:100700002DE9F04107468846002F48D1714800681E
:1007100020F0F0006F4908600846006840F0500083
:1007200008606D480068C0F3811636B1012E09D00B
:10073000022E0AD0032E0DD000BF684800684FEA91
:1007400090040CE06548046809E0644800684FEADA
:10075000500404E0614800684FEAD00400BF00BFC5
:100760004FF083005149C8604FEA1410B0FBF8F510
:100770004FEA15204860E8B208604FF00300C860F7
:100780004FF0070088604FF0050000F080F84FF050
:100790000700464948604FF00100BDE8F081012F95
:1007A00047D14C48006920F00F004A4908610846CB
:1007B000006940F00A00086147480068C0F301265C
:1007C00036B1012E09D0022E0AD0032E0DD000BF63
:1007D000424800684FEA90040CE04048046809E091
:1007E0003E4800684FEA500404E03C4800684FEA85
:1007F000D00400BF00BF4FF083003149C8604FEA0A
:100800001410B0FBF8F54FEA15204860E8B2086014
:100810004FF00300C8604FF0070088604FF00600FB
:1008200000F035F84FF00700254948604FF001000F
:10083000B3E70020B1E710B5A0B910E000BF1F4B2F
:100840001B7813F0010FFAD00B78184C23604FF08F
:1008500000031A4C237001F10101A2F10102002AE8
:10086000ECD113E010E000BF194B1B7813F0010F1F
:10087000FAD00B78124C23604FF00003144C237015
:1008800001F10101A2F10102002AECD110BD00F03A
:100890001F024FF0010101FA02F14FEA50124FF02E
:1008A000E02303EB8202C2F80011704700C0004051
:1008B00010000010180000100800001004000010C4
:1008C0000000014014000010580000100C0000103F
:1008D0000500001000C00240A8C10F400000001039
:1008E00000093D00010100000000000000000000C0
:0808F000000000000000000000
:04000005000000CD2A
:00000001FF
