:020000040000FA
:1000000040020010E1000000E9000000EB000000E9
:10001000ED000000EF000000F10000000000000013
:10002000000000000000000000000000F3000000DD
:10003000F500000000000000F7000000F9000000DB
:10004000FB000000FB000000FB000000FB000000C4
:10005000FB000000FB000000FB000000FB000000B4
:10006000FB000000FB000000FB000000FB000000A4
:10007000FB000000FB000000D10500001D06000091
:10008000FB000000FB000000FB000000FB00000084
:10009000FB000000FB000000FB000000FB00000074
:1000A000FB000000FB000000FB000000FB00000064
:1000B000FB000000FB000000FB000000FB00000054
:1000C000FB000000FB000000FB000000DFF80CD08C
:1000D00000F008FC004800478505000040020010C1
:1000E0000648804706480047FEE7FEE7FEE7FEE7D2
:1000F000FEE7FEE7FEE7FEE7FEE7FEE7050100009C
:10010000CD0000004FF000004FF020018C4A11603C
:1001100000BF8B49096811F0400FFAD04FF003017E
:10012000884A11604FF00001874AC2F8A811874A37
:1001300011604FF00101864A11604FF00B01854AB2
:1001400011604FF00101A2F1040211604FF0AA0109
:10015000814A11604FF055017B4AC2F88C107C49EE
:100160000968022907D000BF7A49091D096811F002
:10017000806FF9D006E04FF0000001E000F10100CF
:100180006428FBD94FF00301744A11604FF0AA01B3
:100190006D4AC2F88C104FF055016F4A11604FF054
:1001A00023016F4A11604FF00101A2F104021160B6
:1001B0004FF0AA016B4A11604FF05501116000BF6A
:1001C0006749091D096811F4806FF9D04FF00301E8
:1001D000654A11604FF0AA015B4AC2F8AC104FF0BB
:1001E0005501604A11606149614A11604FF0000198
:1001F000604A116043F23A01534A116070475E4809
:100200000068C0F30160032868D15148006810F00D
:10021000030006D0012823D002283FD003285CD158
:1002200000E000BF54480068C0F30E0000F1010078
:100230004FEA40014448D0F88800C0F3074000F17D
:100240000100B1FBF0F04D4900FB01F03D490968A8
:10025000C9B201F10101B0FBF1F0494908603CE08D
:1002600045480068C0F30E0000F101004FEA40016C
:100270003548D0F88800C0F3074000F10100B1FB19
:10028000F0F0404900FB01F02E490968C9B201F1C4
:100290000101B0FBF1F03A4908601EE03648006801
:1002A000C0F30E0000F101004FEA40012648D0F8EB
:1002B0008800C0F3074000F10100B1FBF0F04FF4FB
:1002C000FA4100FB01F01F490968C9B201F10101BF
:1002D000B0FBF1F02A49086000BF2FE01C4800681D
:1002E00010F0030006D0012810D0022819D00328EE
:1002F00023D100E000BF13480068C0B200F1010044
:100300001E49B1FBF0F01E49086016E00D48006878
:10031000C0B200F101001B49B1FBF0F018490860C0
:100320000BE008480068C0B200F101004FF4FA4148
:10033000B1FBF0F01249086000BF00BF7047000039
:10034000A0C10F4004C10F4000C00F40ACC10F401E
:100350000CC10F4084C00F408CC00F4080C00F40C4
:10036000A4C00F40ACC00F40A0C00F40DE872804DF
:10037000C4C00F40C8C10F4088C00F4000093D00F5
:1003800000000010001BB70070B505460E464FF088
:100390000001284600F068F94FF000040DE089489C
:1003A00001190822284600F010FA8748011908228E
:1003B000284600F044FA04F10804102CEFD901217A
:1003C000284600F051F94FF0000409E07D48005D37
:1003D0007D49095D884201D000BFFEE704F10104B8
:1003E000102CF3D370BD2DE9F04106460F46012EC7
:1003F00006D17648006840F480307449086005E012
:100400007248006840F040007049086000213046A2
:1004100000F02AF94FF006006A4908704FF0010217
:10042000304600F0D2F90121304600F01DF94FF0BE
:10043000000401E004F101040A2CFBD30021304642
:1004400000F012F94FF005005E4908704FF001020C
:10045000304600F0BAF901225B49304600F0EFF96E
:100460000121304600F000F95748007810F0010FE4
:1004700001D000BFFEE74FF0000409E0514A04F14B
:10048000030014544FF000004F49085504F10104D3
:10049000102CF3D30021304600F0E6F84FF00200B4
:1004A000484908704FF00000487088704FF0100203
:1004B000304600F08AF90121304600F0D5F84FF0BF
:1004C000000401E004F10104B4F5403FFAD34FF019
:1004D00000051DE00021304600F0C6F84FF0050091
:1004E000384908704FF00102304600F06EF90122E1
:1004F0003549304600F0A3F90121304600F0B4F848
:100500003148007810F0010F00D103E005F101053A
:10051000FF2DDFD300BFFF2D01D100BFFEE74FF05D
:10052000000401E004F101040A2CFBD30021304651
:1005300000F09AF84FF00300224908704FF00000D5
:10054000487088704FF00302304600F03EF90D22EB
:100550001D49C91C304600F072F90121304600F0F7
:1005600083F84FF0030409E01648005D1649095D61
:10057000884201D000BFFEE704F10104102CF3D340
:10058000BDE8F0814FF00005FFF739FE15B900F026
:100590008CF803E0012D01D100F0D4F84FF00004F5
:1005A00007E008490C554FF000000749085504F1D1
:1005B0000104102CF5D300212846FFF714FF00BFDB
:1005C000FEE700001C0000102C00001000C00920F5
:1005D000B849C86910F0010F09D0B749096801F19D
:1005E0000101B54A11604FF00101B24A116210F0E9
:1005F000020F09D0B149096801F10101AF4A116048
:100600004FF00201AB4A116210F0040F05D0AC4963
:10061000096801F10101AA4A11607047A949C86936
:1006200010F0010F09D0A849096801F10101A64A9B
:1006300011604FF00101A34A116210F0020F09D0BE
:10064000A249096801F10101A04A11604FF00201BD
:100650009C4A116210F0040F05D09D49096801F110
:1006600001019B4A1160704770B931B9994AD2694A
:1006700042F48032974BDA6116E0964A926942F46E
:100680008032944B9A610FE001280DD131B9914A23
:10069000D26942F040028F4BDA6105E08D4A9269DF
:1006A00042F040028B4B9A61704770B500BF8A4898
:1006B000006840F400108949C1F8C4000846D0F829
:1006C000AC0120F44060C1F8AC018548006820F01E
:1006D0004040834908600846006840F000400860D8
:1006E0000846406820F03F0048600846406840F0F7
:1006F0002A0048600846406820F0030048607548BA
:10070000006840F480307349086040F2077069491E
:1007100008604FF0020008614FF0000405E06548F2
:100720008068C5B204F10100C4B2082CF7DB0E20CA
:1007300000F0B0F84FF002005E4948604FF003004F
:10074000486170BD70B500BF6348006840F48060C8
:100750006249C1F8C4000846D0F8A80120F440104E
:10076000C1F8A8015E48006820F47F205C49086059
:100770000846006840F42A2008600846006820F413
:10078000405008605348006840F0400051490860FC
:1007900040F207704B4908604FF0020008614FF0CB
:1007A000000405E047488068C5B204F10100C4B206
:1007B000082CF7DB0F2000F06DF84FF002004149E4
:1007C00048604FF00300486170BD70B500BF4FF046
:1007D000000331E0B0B900BF364DED6805F01205F9
:1007E000022DF9D10D78334EB56001F1010100BF42
:1007F000304DED6805F01405042DF9D12D4DAD688F
:10080000ECB217E0012815D100BF2E4DED6805F0C0
:100810001205022DF9D10D782A4EB56001F10101C2
:1008200000BF284DED6805F01405042DF9D1254DC4
:10083000AD68ECB203F101039342CBD370BD30B588
:100840004FF0000323E078B94FF0FF04194DAC607E
:1008500000BF184CE46804F01404042CF9D1154CC2
:10086000A46801F8014B10E001280ED14FF0FF04FD
:10087000144DAC6000BF134CE46804F01404042C65
:10088000F9D1104CA46801F8014B03F10103934224
:10089000D9D330BD00F01F024FF0010101FA02F17F
:1008A0004FEA50124FF0E02303EB8202C2F800112E
:1008B0007047000000800840080000100C00001085
:1008C0000400001000000340140000101800001085
:1008D0001000001000C00920C4C00F4000C00F402D
:1008E00000C00240064C074D06E0E06840F00103FE
:1008F00094E8070098471034AC42F6D3FFF7EAFBC0
:10090000280900003809000002E008C8121F08C1C9
:10091000002AFAD170477047002001E001C1121F80
:10092000002AFBD1704700003809000000000010C9
:100930001C0000000809000000093D000000000044
:1009400000000000000000000000000000000000A7
:0409500000000000A3
:04000005000000CD2A
:00000001FF
