:020000040000FA
:10000000700200104D010000550100005701000072
:10001000590100005B0100005D01000000000000CC
:100020000000000000000000000000005F01000070
:100030006101000000000000630100006501000094
:100040006701000067010000670100006701000010
:100050006701000067010000670100006701000000
:1000600067010000670100006701000067010000F0
:1000700067010000670100006701000067010000E0
:1000800067010000670100006701000067010000D0
:1000900067010000670100006701000067010000C0
:1000A000670100006701000089010000670100008E
:1000B00067010000670100006701000067010000A0
:1000C00067010000670100006701000000F002F80E
:1000D00000F02DF80AA090E8000C82448344AAF1B5
:1000E0000107DA4501D100F022F8AFF2090EBAE8B3
:1000F0000F0013F0010F18BFFB1A43F0010318475C
:10010000EC010000FC010000103A24BF78C878C15F
:10011000FAD8520724BF30C830C144BF04680C600D
:1001200070471FB500F0DBF81FBD10B510BD00F023
:100130009CF81146FFF7F5FF00F026FA00F0BAF838
:1001400003B4FFF7F2FF03BC00F0C2F80948804790
:1001500009480047FEE7FEE7FEE7FEE7FEE7FEE7A9
:10016000FEE7FEE7FEE7FEE704480549034A054BC4
:100170007047000001030000CD0000007000001077
:1001800070020010700000102C494968084658B1F0
:100190002B49096801F10101294A11602749896841
:1001A00041EA0001254A91602449C968084658B1CE
:1001B0002449096801F10101224A11601F490969B6
:1001C00041EA00011D4A1161704710B501461E4801
:1001D000006840F000501D4AC2F8C4004FF0010012
:1001E000164A9060106151B919481A4A10601A48AD
:1001F000124AC2F804011948194A106001E00020AF
:1002000010BD4FF001000D4A106300BF0B48006B9A
:1002100010F0010FFAD04FF01A004FF0010202FA6D
:1002200000F24FEA50134FF0E02404EB8303C3F8CD
:10023000002100BF4FF00100E2E700000040005045
:100240000400001008000010C4C00F4000C00F40A0
:1002500000C00720004100500000082000444A8CE4
:100260000C410050704770477047754600F028F801
:10027000AE4605006946534620F00700854618B093
:1002800020B5FFF771FFBDE820404FF000064FF0AA
:1002900000074FF000084FF0000B21F00701AC46BB
:1002A000ACE8C009ACE8C009ACE8C009ACE8C009DA
:1002B0008D4670470446AFF300802046FFF740FFAD
:1002C000004870470C0000100048704710000010F4
:1002D00001491820ABBEFEE726000200704710B5AA
:1002E000FFF7F2FF4FF00001016010BD280600008B
:1002F000000000100C00000008010000FFFFFFFFDD
:100300004FF0000108464FF020018D4A116000BFF8
:100310008B49096811F0400FFAD04FF00301894A68
:1003200011604FF00001884AC2F8A811874A116095
:100330004FF00101864A11604FF00B01854A1160B0
:100340004FF00101A2F1040211604FF0AA01824AAC
:1003500011604FF055017C4AC2F88C107C49096845
:10036000022907D000BF7B49091D096811F0806F81
:10037000F9D008E04FF00001084602E000F1010169
:1003800008466428FAD94FF00301744A11604FF00F
:10039000AA016D4AC2F88C104FF055016E4A1160E7
:1003A0004FF023016E4A11604FF00101A2F10402E7
:1003B00011604FF0AA016B4A11604FF055011160B6
:1003C00000BF6749091D096811F4806FF9D04FF02B
:1003D0000301654A11604FF0AA015B4AC2F8AC10F4
:1003E0004FF055015F4A11606049614A11604FF05A
:1003F0000001604A116043F23A01534A11607047AC
:100400005D480068C0F30160032868D15048006867
:1004100010F0030006D0012823D002283FD0032883
:100420005CD100E000BF54480068C0F30E0000F14A
:1004300001004FEA40014448D0F88800C0F307406B
:1004400000F10100B1FBF0F04C4900FB01F03D4927
:100450000968C9B201F10101B0FBF1F04849086037
:100460003CE045480068C0F30E0000F101004FEA8F
:1004700040013548D0F88800C0F3074000F1010082
:10048000B1FBF0F03F4900FB01F02E490968C9B209
:1004900001F10101B0FBF1F0394908601EE0364876
:1004A0000068C0F30E0000F101004FEA4001264849
:1004B000D0F88800C0F3074000F10100B1FBF0F074
:1004C0004FF4FA4100FB01F01E490968C9B201F17D
:1004D0000101B0FBF1F02A49086000BF2FE01C4881
:1004E000006810F0030006D0012810D0022819D0AF
:1004F000032823D100E000BF12480068C0B200F119
:1005000001001E49B1FBF0F01D49086016E00D48DE
:100510000068C0B200F101001A49B1FBF0F01849BF
:1005200008600BE007480068C0B200F101004FF41A
:10053000FA41B1FBF0F01249086000BF00BF7047FC
:10054000A0C10F4004C10F4000C00F40ACC10F401C
:100550000CC10F4084C00F408CC00F4080C00F40C2
:10056000A4C00F40ACC00F40A0C00F40DE872804DD
:10057000C4C00F40C8C10F4088C00F4000093D00F3
:1005800000000010001BB700FFF73AFF21480646A5
:10059000214805464FF0000004460CE006F1040037
:1005A000346006464FF00000286005F1040005465F
:1005B00004F101000446B4F5806FEFD30020FFF78B
:1005C00004FE1648006848F2010140EA010014499F
:1005D000C1F8100100BF134800680028FBD00D4887
:1005E00006460D4805464FF0000004460CE0301D5D
:1005F00031680646281D2A680546914201D000BF91
:10060000FEE704F101000446B4F5806FEFD300BFAC
:10061000FEE7000000C00720000008201041005045
:10062000004000500400001000093D0000000000E0
:0406300000000000C6
:04000005000000CD2A
:00000001FF
