:020000040000FA
:1000000030020010490200004D0200004F020000C3
:1000100051020000530200005502000000000000E1
:100020000000000000000000000000005702000077
:1000300059020000000000005B0200005D020000A9
:100040005F0200005F0200005F0200005F0200002C
:100050005F0200005F0200005F0200005F0200001C
:100060005F0200005F0200005F0200005F0200000C
:100070005F0200005F0200005F0200005F020000FC
:100080005F0200005F0200005F0200005F020000EC
:100090005F0200005F0200005F0200005F020000DC
:1000A0005F0200005F0200005F0200005F020000CC
:1000B0004104000013040000E5030000B703000042
:1000C0000348854600F0CEF800480047D500000000
:1000D0003002001008B500F08AF800F0C8F90022DC
:1000E0000121104600F034FB0020034602460121A6
:1000F000009000F0D0F90121002000F0ABFA0022BE
:100100000121084600F024FB00200346024601219D
:100110000090084600F0BFF90121084600F09AFA65
:1001200000220121022000F013FB002003460246BA
:1001300001210090022000F0AEF90121022000F020
:1001400089FA00220121032000F002FB002003466F
:10015000024601210090032000F09DF901210320B7
:1001600000F078FA00BFFEE72F49304A1160012104
:100170002F4A11605160002151600121516000BF80
:100180002B494968C907C90FFAD02A498868400A2B
:1001900040022021014303221143264A916026494F
:1001A000896B80229143244A916300BF2149C96829
:1001B000C907C90FFAD003211D4A116301215163F8
:1001C000002151630121516300BF1949496BC907DF
:1001D000C90FFAD00121164A9163144909688900B0
:1001E000164A116011460968154A1160704700B53A
:1001F000022010490860002008620F48806B20210F
:1002000088430D498863002300E05B1CFF2BFCD969
:10021000FFF7AAFF0648403000680121090408439F
:100220000849086000BD0000001BB7000000001076
:10023000408004400080044000820440040000101C
:10024000080000108080044005480047FEE7FEE7F4
:10025000FEE7FEE7FEE7FEE7FEE7FEE7FEE7FEE776
:10026000C1000000064C0125064E05E02046E3686B
:1002700007C82B4398471034B442F7D3FFF724FF45
:10028000B8020000C802000002E008C8121F08C13E
:10029000002AFAD170477047002001E001C1121F07
:1002A000002AFBD170470000000000500000015000
:1002B0000000025000000350B407000000000010CE
:1002C0002C00000088020000000000000000000078
:1002D000000000000000000000000000000000001E
:1002E000000000000000000000000000000000000E
:1002F000000000000000000000000000FFFFFFFF02
:10030000002806D001280CD0022812D0032820D1C2
:1003100017E0FB4AD26901238B401A43F84BDA619C
:1003200018E0F84AD26901238B401A43F54BDA6191
:1003300010E0F54AD26901238B401A43F24BDA618F
:1003400008E0F24AD26901238B401A43EF4BDA618D
:1003500000E000BF00BF704710B502460020002A31
:1003600006D0012A0CD0022A12D0032A20D117E08D
:10037000E34B9B6901248C40234200D0012018E00C
:10038000E04B9B6901248C40234200D0012010E007
:10039000DD4B9B6901248C40234200D0012008E002
:1003A000DA4B9B6901248C40234200D0012000E0FD
:1003B00000BF00BF10BD10B5D5480068401CD4492F
:1003C000086001210020FFF7C7FF0446002C08D079
:1003D000D0480068401CCF49086001210020FFF789
:1003E0008FFF10BD10B5CC480068401CCA4908609A
:1003F00001210846FFF7B0FF0446002C08D0C7488B
:100400000068401CC549086001210846FFF778FFD5
:1004100010BD10B5C2480068401CC14908600121E8
:100420000220FFF799FF0446002C08D0BD48006861
:10043000401CBC49086001210220FFF761FF10BD8C
:1004400010B5B9480068401CB74908600121032075
:10045000FFF782FF0446002C08D0B4480068401C17
:10046000B249086001210320FFF74AFF10BD10B513
:10047000AF48006840210843AD4908601F2000F0E4
:100480008EF91E2000F08BF91D2000F088F91C2049
:1004900000F085F910BD70B5049C002806D0012835
:1004A00038D002286AD003287BD19CE0002A18D1DA
:1004B000934D6D6801268E40B543914E7560002BBB
:1004C00007D13546AD6801268E40B5438C4EB560E8
:1004D0000EE08B4DAD6801268E403543884EB560E9
:1004E00006E0874D6D6801268E403543844E756069
:1004F000002C07D1824DED6801268E40B543804E19
:10050000F56006E07E4DED6801268E4035437C4E59
:10051000F5609DE0002A18D17A4D6D6801268E4065
:10052000B543784E7560002B07D13546AD6801267E
:100530008E40B543734EB5600EE0724DAD68012636
:100540008E4035436F4EB56006E06E4D6D680126F6
:100550008E4035436B4E7560002C07D1694DED68B8
:1005600001268E40B543674EF56006E0654DED68A7
:1005700001268E403543634EF56069E0002A19D1AB
:10058000614D6D6801268E40B5435F4E7560002B4E
:1005900008D13546AD6801268E40B5435A4EB56048
:1005A0000FE054E0584DAD6801268E403543564E5D
:1005B000B56006E0544D6D6801268E403543524EBD
:1005C0007560002C07D1504DED6801268E40B54373
:1005D0004D4EF56006E04C4DED6801268E403543EA
:1005E000494EF56034E0002A18D1484D6D68012667
:1005F0008E40B543454E7560002B07D13546AD683A
:1006000001268E40B543414EB5600EE03F4DAD68CA
:1006100001268E4035433D4EB56006E03B4D6D688A
:1006200001268E403543394E7560002C07D1374D79
:10063000ED6801268E40B543344EF56006E0334D3B
:10064000ED6801268E403543304EF56000E000BF76
:1006500000BF70BD002806D001280CD0022812D09F
:10066000032820D117E0264A126901238B401A4340
:10067000234B1A6118E0234A126901238B401A4365
:10068000204B1A6110E0204A126901238B401A4363
:100690001D4B1A6108E01D4A126901238B401A4361
:1006A0001A4B1A6100E000BF00BF7047002806D057
:1006B00001280CD0022812D003283BD117E0104AA1
:1006C000126901238B409A430D4B1A6133E00D4AA6
:1006D000126901238B409A430A4B1A612BE00A4AA4
:1006E000126901238B409A43074B1A6123E0074AA2
:1006F000136901228A409343044A13611BE00000FE
:1007000000800050008001500080025000800350A3
:100710000C0000101C000010100000102000001041
:100720001400001024000010180000102800001011
:100730008080044000BF00BF704730B513468B4037
:1007400084001A4D2D5901248C40A4002B5130BD3A
:1007500030B5002A11D08300144CE3580124E4037F
:100760001B191B6801248C40234384000F4D2C5916
:100770000125ED036419236010E083000B4CE3585E
:100780000124E4031B191B6801248C40A34384004B
:10079000064D2C590125ED036419236030BDC206B6
:1007A000D20E01219140024A11607047A802000058
:1007B00000E100E0001BB700001BB700001BB70002
:1007C0000000000000000000000000000000000029
:1007D0000000000000000000000000000000000019
:04000005000000C136
:00000001FF
