:020000040000FA
:10000000700200106D010000750100007701000012
:10001000790100007B0100007D010000000000006C
:100020000000000000000000000000007F01000050
:100030008101000000000000830100008501000034
:1000400087010000690900008109000087010000A4
:100050008701000087010000870100008701000080
:100060008701000087010000870100008701000070
:100070008701000087010000870100008701000060
:100080008701000087010000870100008701000050
:100090008701000087010000870100008701000040
:1000A0008701000087010000870100008701000030
:1000B00087010000870100002D0400008701000077
:1000C00087010000870100008701000000F002F8AE
:1000D00000F03CF80AA090E8000C82448344AAF1A6
:1000E0000107DA4501D100F031F8AFF2090EBAE8A4
:1000F0000F0013F0010F18BFFB1A43F0010318475C
:10010000EC0900000C0A0000103A24BF78C878C13E
:10011000FAD8520724BF30C830C144BF04680C600D
:10012000704700000023002400250026103A28BF55
:1001300078C1FBD8520728BF30C148BF0B60704759
:100140001FB500F0CCFC1FBD10B510BD00F08DFC3C
:100150001146FFF7F5FF00F06DFB00F0ABFC03B4B8
:10016000FFF7F2FF03BC00F0B3FC00000948804732
:1001700009480047FEE7FEE7FEE7FEE7FEE7FEE789
:10018000FEE7FEE7FEE7FEE704480549034A054BA4
:1001900070470000A9010000CD00000070000010B1
:1001A00070020010700000104FF000004FF02001AE
:1001B0008C4A116000BF8B49096811F0400FFAD0DA
:1001C0004FF00301884A11604FF00001874AC2F8DE
:1001D000A811874A11604FF00101864A11604FF063
:1001E0000B01854A11604FF00101A2F10402116078
:1001F0004FF0AA01814A11604FF055017B4AC2F8C5
:100200008C107C490968022907D000BF7A49091D72
:10021000096811F0806FF9D006E04FF0000001E0AE
:1002200000F101006428FBD94FF00301744A11600A
:100230004FF0AA016D4AC2F88C104FF055016F4A79
:1002400011604FF023016F4A11604FF00101A2F1DC
:10025000040211604FF0AA016B4A11604FF0550182
:10026000116000BF6749091D096811F4806FF9D05A
:100270004FF00301654A11604FF0AA015B4AC2F8D2
:10028000AC104FF05501604A11606149614A11603C
:100290004FF00001604A116043F23A01534A116085
:1002A00070475E480068C0F30160032868D1514878
:1002B000006810F0030006D0012823D002283FD0A8
:1002C00003285CD100E000BF54480068C0F30E0072
:1002D00000F101004FEA40014448D0F88800C0F323
:1002E000074000F10100B1FBF0F04D4900FB01F0C7
:1002F0003D490968C9B201F10101B0FBF1F049497A
:1003000008603CE045480068C0F30E0000F10100C1
:100310004FEA40013548D0F88800C0F3074000F1AB
:100320000100B1FBF0F0404900FB01F02E490968E3
:10033000C9B201F10101B0FBF1F03A4908601EE0D9
:1003400036480068C0F30E0000F101004FEA40019A
:100350002648D0F88800C0F3074000F10100B1FB47
:10036000F0F04FF4FA4100FB01F01F490968C9B2EF
:1003700001F10101B0FBF1F02A49086000BF2FE054
:100380001C48006810F0030006D0012810D0022895
:1003900019D0032823D100E000BF13480068C0B281
:1003A00000F101001E49B1FBF0F01E49086016E0A3
:1003B0000D480068C0B200F101001B49B1FBF0F02C
:1003C000184908600BE008480068C0B200F101005D
:1003D0004FF4FA41B1FBF0F01249086000BF00BFD2
:1003E00070470000A0C10F4004C10F4000C00F4083
:1003F000ACC10F400CC10F4084C00F408CC00F40F7
:1004000080C00F40A4C00F40ACC00F40A0C00F4040
:10041000DE872804C4C00F40C8C10F4088C00F4009
:1004200000093D0000000010001BB700F349886E72
:1004300008677047F248006840F40030F149C1F89D
:10044000C400F148C068F14900EA0100EE49C86003
:100450000846C068EE4900EA0100EB49C86008465A
:10046000C06820F07060C8600846C06820F0A060D6
:10047000C860704770B505460C46002D47D1DF496E
:1004800060698861A0694862E0690863206818B102
:100490004FF00200486003E04FF00200D749886047
:1004A000606820B14FF00400D449486003E04FF089
:1004B0000400D2498860A06820B14FF00800CF49FD
:1004C000486003E04FF00800CC498860CB48C06B1F
:1004D0006FF30900C949C8630846C06BE168C1F3FE
:1004E000090140EA0100C549C863206918B14FF00D
:1004F0001000886003E04FF01000C04948601E20E3
:1005000000F06CF94FF00700BC49486597E0012DF9
:1005100048D1BA496069C861A0698862E0694863E6
:10052000206818B14FF40070486003E04FF4007089
:10053000B2498860606820B14FF48060AF4948607C
:1005400003E04FF48060AD498860A06820B14FF4AB
:100550000060AA49486003E04FF40060A749886042
:10056000A648C06BAB4900EA0100A449C86308462D
:10057000C06BE168C1F3090140EA81209F49C8636B
:10058000206918B14FF48050886003E04FF4805028
:100590009A4948601E2000F021F94FF070009749F9
:1005A00048654CE0022D48D1944960690862A06911
:1005B000C862E0698863206818B14FF40030486071
:1005C00003E04FF400308D498860606820B14FF43B
:1005D00080208A49486003E04FF480208749886082
:1005E000A06820B14FF400208449486003E04FF434
:1005F0000020824988608148C06B874900EA010079
:100600007E49C8630846C06BE168C1F3090140EA4E
:1006100001507A49C863206918B14FF4801088608E
:1006200003E04FF48010754948601E2000F0D6F8B2
:100630004FF4E0607149486501E0002070BD012081
:10064000FCE702462AB96D4B88695862C86918638D
:1006500011E0012A05D1694B88699862C86958631D
:1006600009E0022A05D1654B8869D862C869986398
:1006700001E0002070470120FCE730B578B9674CF5
:100680005E4D6C6101F03F042C6112B14FF4802487
:100690002C615BB34FF40014584D2C6126E0012807
:1006A00011D15F4C554D6C614FEA81644FEA14548F
:1006B0002C6112B14FF400242C61BBB14FF48004C3
:1006C0004E4D2C6112E0022810D1564C4B4D6C61FE
:1006D0004FEA81644FEA94342C6112B14FF48014D4
:1006E0002C611BB14FF40004444D2C6130BD10B59A
:1006F00058B931B102F03F0343F000533F4C236639
:1007000022E0494B3D4C63661EE001280DD141B10A
:1007100002F03F034FF0804444EA8313374C2366D2
:1007200012E0424B354C63660EE002280CD141B119
:1007300002F03F034FF0004444EA03332F4C23669A
:1007400002E03B4B2D4C636610BD10B503464FF0E5
:100750000000012B01D140F00100012901D140F43A
:100760008070012A01D140F48030244C606010BDBB
:1007700010B503464FF00000012B01D140F00100FD
:10078000012901D140F48070012A01D140F4803068
:100790001A4CA06010BD20B14FF08041174A516043
:1007A00003E04FF08041154A9160704710B520B1C9
:1007B0004FF00043114C636003E04FF000430F4CD7
:1007C000A36021B14FF000530C4C636003E04FF085
:1007D00000530A4CA360094B1A6410BD00F01F02BD
:1007E0004FF0010101FA02F14FEA50124FF0E023FD
:1007F00003EB8202C2F800117047000000800B403A
:10080000C4C00F4000C00F4000C002403F00C0FF06
:10081000BFAAEAFFFF03F0FFFFFF0FC03F00240065
:10082000C00F480000F093003F00002000FC004093
:1008300000003F8000B599B0FFF733FDFFF7FAFDE8
:100840004FF00000019002900390049005900690F4
:100850004FF4967007904FF0960008904FF000000C
:10086000099001460A910B910C910D910E914FF454
:1008700096710F914FF096011091119001461291CF
:1008800013911491159116914FF4967117914FF0A1
:100890009601189101A9FFF7EDFD10B9002019B0DC
:1008A00000BD09A90120FFF7E5FD08B90020F6E722
:1008B00011A90220FFF7DEFD08B90020EFE74FF095
:1008C00000700A49086688674FF014014FF0000075
:1008D00000F00EF84FF000700449C8674FF00102B5
:1008E00011461046FFF731FF00BFFEE700C00920A8
:1008F000E8B94FF002024FF040235A604FF0000277
:10090000DA6042F2273201FB02F29A614FF0FF02F5
:100910001A604FF004025A614FF001025A6000BFA2
:100920004FF04022526812F0010FF9D11BE001286C
:1009300019D14FF00202484B5A604FF00002DA60C2
:1009400042F2273201FB02F29A614FF0FF021A6075
:100950004FF004025A6102465A6000BF3E4A526894
:1009600012F0010FFAD170474FF001004FF0402113
:1009700008603A48006800F1010038490860704793
:100980004FF00100344908603548006800F101006B
:1009900033490860704728B94FF001014FF04022F9
:1009A000516003E04FF001012B4A5160704728B9B4
:1009B0004FF000014FF04022516003E04FF0000182
:1009C000254A51607047014631B94FF040225068C6
:1009D00040F00200506004E01F4A506840F00200FE
:1009E0005060704770B505460C468DB94FF0000059
:1009F0001A4908604FF0402084614FF003004FF027
:100A0000402148614FF0010000F016F8012070BD50
:100A1000012D0FD14FF00000114908600E4884618C
:100A20004FF003000C4948614FF0020000F004F859
:100A30000120ECE70020EAE700F01F024FF001017F
:100A400001FA02F14FEA50124FF0E02303EB820269
:100A5000C2F8001170470000008000400400001040
:100A600008000010704770477047754600F028F87E
:100A7000AE4605006946534620F00700854618B08B
:100A800020B5FFF781FBBDE820404FF000064FF096
:100A900000074FF000084FF0000B21F00701AC46B3
:100AA000ACE8C009ACE8C009ACE8C009ACE8C009D2
:100AB0008D4670470446AFF300802046FFF74FFB9A
:100AC000004870470C0000100048704710000010EC
:100AD00001491820ABBEFEE726000200704710B5A2
:100AE000FFF7F2FF4FF00001016010BD0C0B00009A
:100AF000000000100C00000008010000180B0000AE
:100B00000C000010640200002401000000093D00F8
:080B10000000000000000000DD
:04000005000000CD2A
:00000001FF
